{
  "_format": "hh-sol-artifact-1",
  "contractName": "ERC721DutchAuction",
  "sourceName": "contracts/ERC721DutchAuction.sol",
  "abi": [
    {
      "inputs": [
        {
          "internalType": "string",
          "name": "nftName",
          "type": "string"
        },
        {
          "internalType": "string",
          "name": "nftSymbol",
          "type": "string"
        },
        {
          "internalType": "string",
          "name": "_baseTokenURI",
          "type": "string"
        },
        {
          "internalType": "uint256",
          "name": "_MAX_MINTABLE",
          "type": "uint256"
        },
        {
          "internalType": "address",
          "name": "_ROYALTY_RECIPIENT",
          "type": "address"
        },
        {
          "internalType": "uint256",
          "name": "_ROYALTY_VALUE",
          "type": "uint256"
        },
        {
          "internalType": "uint256",
          "name": "_MAX_PUBLIC_CLAIM",
          "type": "uint256"
        },
        {
          "internalType": "address",
          "name": "_KALAO_ADDRESS",
          "type": "address"
        }
      ],
      "stateMutability": "nonpayable",
      "type": "constructor"
    },
    {
      "anonymous": false,
      "inputs": [
        {
          "indexed": true,
          "internalType": "address",
          "name": "owner",
          "type": "address"
        },
        {
          "indexed": true,
          "internalType": "address",
          "name": "approved",
          "type": "address"
        },
        {
          "indexed": true,
          "internalType": "uint256",
          "name": "tokenId",
          "type": "uint256"
        }
      ],
      "name": "Approval",
      "type": "event"
    },
    {
      "anonymous": false,
      "inputs": [
        {
          "indexed": true,
          "internalType": "address",
          "name": "owner",
          "type": "address"
        },
        {
          "indexed": true,
          "internalType": "address",
          "name": "operator",
          "type": "address"
        },
        {
          "indexed": false,
          "internalType": "bool",
          "name": "approved",
          "type": "bool"
        }
      ],
      "name": "ApprovalForAll",
      "type": "event"
    },
    {
      "anonymous": false,
      "inputs": [
        {
          "indexed": true,
          "internalType": "uint256",
          "name": "_id",
          "type": "uint256"
        },
        {
          "indexed": true,
          "internalType": "uint256",
          "name": "_price",
          "type": "uint256"
        }
      ],
      "name": "MINT",
      "type": "event"
    },
    {
      "anonymous": false,
      "inputs": [
        {
          "indexed": true,
          "internalType": "address",
          "name": "previousOwner",
          "type": "address"
        },
        {
          "indexed": true,
          "internalType": "address",
          "name": "newOwner",
          "type": "address"
        }
      ],
      "name": "OwnershipTransferred",
      "type": "event"
    },
    {
      "anonymous": false,
      "inputs": [
        {
          "indexed": true,
          "internalType": "address",
          "name": "from",
          "type": "address"
        },
        {
          "indexed": true,
          "internalType": "address",
          "name": "to",
          "type": "address"
        },
        {
          "indexed": true,
          "internalType": "uint256",
          "name": "tokenId",
          "type": "uint256"
        }
      ],
      "name": "Transfer",
      "type": "event"
    },
    {
      "stateMutability": "payable",
      "type": "fallback"
    },
    {
      "inputs": [],
      "name": "BASE_URI",
      "outputs": [
        {
          "internalType": "string",
          "name": "",
          "type": "string"
        }
      ],
      "stateMutability": "view",
      "type": "function"
    },
    {
      "inputs": [],
      "name": "DURATION_STEP",
      "outputs": [
        {
          "internalType": "uint256",
          "name": "",
          "type": "uint256"
        }
      ],
      "stateMutability": "view",
      "type": "function"
    },
    {
      "inputs": [],
      "name": "HAS_PUBLIC",
      "outputs": [
        {
          "internalType": "bool",
          "name": "",
          "type": "bool"
        }
      ],
      "stateMutability": "view",
      "type": "function"
    },
    {
      "inputs": [],
      "name": "HAS_WL",
      "outputs": [
        {
          "internalType": "bool",
          "name": "",
          "type": "bool"
        }
      ],
      "stateMutability": "view",
      "type": "function"
    },
    {
      "inputs": [],
      "name": "KALAO_CONTRACT",
      "outputs": [
        {
          "internalType": "address",
          "name": "",
          "type": "address"
        }
      ],
      "stateMutability": "view",
      "type": "function"
    },
    {
      "inputs": [],
      "name": "MAX_MINTABLE",
      "outputs": [
        {
          "internalType": "uint256",
          "name": "",
          "type": "uint256"
        }
      ],
      "stateMutability": "view",
      "type": "function"
    },
    {
      "inputs": [],
      "name": "MAX_PER_CLAIM",
      "outputs": [
        {
          "internalType": "uint256",
          "name": "",
          "type": "uint256"
        }
      ],
      "stateMutability": "view",
      "type": "function"
    },
    {
      "inputs": [],
      "name": "MAX_PUBLIC_CLAIM",
      "outputs": [
        {
          "internalType": "uint256",
          "name": "",
          "type": "uint256"
        }
      ],
      "stateMutability": "view",
      "type": "function"
    },
    {
      "inputs": [],
      "name": "MIN_PRICE",
      "outputs": [
        {
          "internalType": "uint256",
          "name": "",
          "type": "uint256"
        }
      ],
      "stateMutability": "view",
      "type": "function"
    },
    {
      "inputs": [],
      "name": "OPEN_SALES",
      "outputs": [
        {
          "internalType": "bool",
          "name": "",
          "type": "bool"
        }
      ],
      "stateMutability": "view",
      "type": "function"
    },
    {
      "inputs": [],
      "name": "PUBLIC_START_DATE",
      "outputs": [
        {
          "internalType": "uint256",
          "name": "",
          "type": "uint256"
        }
      ],
      "stateMutability": "view",
      "type": "function"
    },
    {
      "inputs": [],
      "name": "RANDOMIZED",
      "outputs": [
        {
          "internalType": "bool",
          "name": "",
          "type": "bool"
        }
      ],
      "stateMutability": "view",
      "type": "function"
    },
    {
      "inputs": [],
      "name": "ROYALTY_VALUE",
      "outputs": [
        {
          "internalType": "uint256",
          "name": "",
          "type": "uint256"
        }
      ],
      "stateMutability": "view",
      "type": "function"
    },
    {
      "inputs": [],
      "name": "STARTING_NFT_PRICE",
      "outputs": [
        {
          "internalType": "uint256",
          "name": "",
          "type": "uint256"
        }
      ],
      "stateMutability": "view",
      "type": "function"
    },
    {
      "inputs": [
        {
          "internalType": "uint256",
          "name": "_WL_START_DATE",
          "type": "uint256"
        },
        {
          "internalType": "uint256",
          "name": "_WL_END_DATE",
          "type": "uint256"
        },
        {
          "internalType": "uint256",
          "name": "_MAX_WL_CLAIM",
          "type": "uint256"
        },
        {
          "internalType": "bytes32",
          "name": "_MERKLE_ROOT",
          "type": "bytes32"
        }
      ],
      "name": "addWhiteList",
      "outputs": [],
      "stateMutability": "nonpayable",
      "type": "function"
    },
    {
      "inputs": [
        {
          "internalType": "uint256",
          "name": "n",
          "type": "uint256"
        },
        {
          "internalType": "address",
          "name": "adr",
          "type": "address"
        }
      ],
      "name": "adminMint",
      "outputs": [],
      "stateMutability": "nonpayable",
      "type": "function"
    },
    {
      "inputs": [
        {
          "internalType": "uint256",
          "name": "n",
          "type": "uint256"
        },
        {
          "internalType": "address",
          "name": "adr",
          "type": "address"
        }
      ],
      "name": "adminRandomMint",
      "outputs": [],
      "stateMutability": "nonpayable",
      "type": "function"
    },
    {
      "inputs": [
        {
          "internalType": "address",
          "name": "to",
          "type": "address"
        },
        {
          "internalType": "uint256",
          "name": "tokenId",
          "type": "uint256"
        }
      ],
      "name": "approve",
      "outputs": [],
      "stateMutability": "nonpayable",
      "type": "function"
    },
    {
      "inputs": [
        {
          "internalType": "address",
          "name": "owner",
          "type": "address"
        }
      ],
      "name": "balanceOf",
      "outputs": [
        {
          "internalType": "uint256",
          "name": "",
          "type": "uint256"
        }
      ],
      "stateMutability": "view",
      "type": "function"
    },
    {
      "inputs": [],
      "name": "discountRate",
      "outputs": [
        {
          "internalType": "uint256",
          "name": "",
          "type": "uint256"
        }
      ],
      "stateMutability": "view",
      "type": "function"
    },
    {
      "inputs": [
        {
          "internalType": "address",
          "name": "_addr",
          "type": "address"
        }
      ],
      "name": "getAdmins",
      "outputs": [
        {
          "internalType": "bool",
          "name": "",
          "type": "bool"
        }
      ],
      "stateMutability": "view",
      "type": "function"
    },
    {
      "inputs": [
        {
          "internalType": "uint256",
          "name": "tokenId",
          "type": "uint256"
        }
      ],
      "name": "getApproved",
      "outputs": [
        {
          "internalType": "address",
          "name": "",
          "type": "address"
        }
      ],
      "stateMutability": "view",
      "type": "function"
    },
    {
      "inputs": [],
      "name": "getCurrentPrice",
      "outputs": [
        {
          "internalType": "uint256",
          "name": "",
          "type": "uint256"
        }
      ],
      "stateMutability": "view",
      "type": "function"
    },
    {
      "inputs": [
        {
          "internalType": "address",
          "name": "owner",
          "type": "address"
        },
        {
          "internalType": "address",
          "name": "operator",
          "type": "address"
        }
      ],
      "name": "isApprovedForAll",
      "outputs": [
        {
          "internalType": "bool",
          "name": "",
          "type": "bool"
        }
      ],
      "stateMutability": "view",
      "type": "function"
    },
    {
      "inputs": [
        {
          "internalType": "address",
          "name": "_whitelistedAddress",
          "type": "address"
        },
        {
          "internalType": "bytes32[]",
          "name": "_proof",
          "type": "bytes32[]"
        },
        {
          "internalType": "uint256",
          "name": "position",
          "type": "uint256"
        }
      ],
      "name": "isWhiteListed",
      "outputs": [
        {
          "internalType": "bool",
          "name": "",
          "type": "bool"
        }
      ],
      "stateMutability": "view",
      "type": "function"
    },
    {
      "inputs": [],
      "name": "last_price",
      "outputs": [
        {
          "internalType": "uint256",
          "name": "",
          "type": "uint256"
        }
      ],
      "stateMutability": "view",
      "type": "function"
    },
    {
      "inputs": [
        {
          "internalType": "uint256",
          "name": "n",
          "type": "uint256"
        }
      ],
      "name": "mint",
      "outputs": [],
      "stateMutability": "payable",
      "type": "function"
    },
    {
      "inputs": [],
      "name": "mintIndexStart",
      "outputs": [
        {
          "internalType": "uint256",
          "name": "",
          "type": "uint256"
        }
      ],
      "stateMutability": "view",
      "type": "function"
    },
    {
      "inputs": [],
      "name": "minted",
      "outputs": [
        {
          "internalType": "uint256",
          "name": "",
          "type": "uint256"
        }
      ],
      "stateMutability": "view",
      "type": "function"
    },
    {
      "inputs": [],
      "name": "name",
      "outputs": [
        {
          "internalType": "string",
          "name": "",
          "type": "string"
        }
      ],
      "stateMutability": "view",
      "type": "function"
    },
    {
      "inputs": [],
      "name": "owner",
      "outputs": [
        {
          "internalType": "address",
          "name": "",
          "type": "address"
        }
      ],
      "stateMutability": "view",
      "type": "function"
    },
    {
      "inputs": [
        {
          "internalType": "uint256",
          "name": "tokenId",
          "type": "uint256"
        }
      ],
      "name": "ownerOf",
      "outputs": [
        {
          "internalType": "address",
          "name": "",
          "type": "address"
        }
      ],
      "stateMutability": "view",
      "type": "function"
    },
    {
      "inputs": [
        {
          "internalType": "address",
          "name": "",
          "type": "address"
        }
      ],
      "name": "publicMintedAmount",
      "outputs": [
        {
          "internalType": "uint256",
          "name": "",
          "type": "uint256"
        }
      ],
      "stateMutability": "view",
      "type": "function"
    },
    {
      "inputs": [],
      "name": "renounceOwnership",
      "outputs": [],
      "stateMutability": "nonpayable",
      "type": "function"
    },
    {
      "inputs": [
        {
          "internalType": "uint256",
          "name": "tokenId",
          "type": "uint256"
        },
        {
          "internalType": "uint256",
          "name": "value",
          "type": "uint256"
        }
      ],
      "name": "royaltyInfo",
      "outputs": [
        {
          "internalType": "address",
          "name": "receiver",
          "type": "address"
        },
        {
          "internalType": "uint256",
          "name": "royaltyAmount",
          "type": "uint256"
        }
      ],
      "stateMutability": "view",
      "type": "function"
    },
    {
      "inputs": [
        {
          "internalType": "address",
          "name": "from",
          "type": "address"
        },
        {
          "internalType": "address",
          "name": "to",
          "type": "address"
        },
        {
          "internalType": "uint256",
          "name": "tokenId",
          "type": "uint256"
        }
      ],
      "name": "safeTransferFrom",
      "outputs": [],
      "stateMutability": "nonpayable",
      "type": "function"
    },
    {
      "inputs": [
        {
          "internalType": "address",
          "name": "from",
          "type": "address"
        },
        {
          "internalType": "address",
          "name": "to",
          "type": "address"
        },
        {
          "internalType": "uint256",
          "name": "tokenId",
          "type": "uint256"
        },
        {
          "internalType": "bytes",
          "name": "data",
          "type": "bytes"
        }
      ],
      "name": "safeTransferFrom",
      "outputs": [],
      "stateMutability": "nonpayable",
      "type": "function"
    },
    {
      "inputs": [
        {
          "internalType": "address[]",
          "name": "_addr",
          "type": "address[]"
        }
      ],
      "name": "setAdmins",
      "outputs": [],
      "stateMutability": "nonpayable",
      "type": "function"
    },
    {
      "inputs": [
        {
          "internalType": "address",
          "name": "operator",
          "type": "address"
        },
        {
          "internalType": "bool",
          "name": "approved",
          "type": "bool"
        }
      ],
      "name": "setApprovalForAll",
      "outputs": [],
      "stateMutability": "nonpayable",
      "type": "function"
    },
    {
      "inputs": [
        {
          "internalType": "string",
          "name": "uri",
          "type": "string"
        }
      ],
      "name": "setBaseUri",
      "outputs": [],
      "stateMutability": "nonpayable",
      "type": "function"
    },
    {
      "inputs": [
        {
          "internalType": "uint256",
          "name": "_PUBLIC_START_DATE",
          "type": "uint256"
        },
        {
          "internalType": "uint256",
          "name": "_STARTING_NFT_PRICE",
          "type": "uint256"
        },
        {
          "internalType": "uint256",
          "name": "_MIN_PRICE",
          "type": "uint256"
        },
        {
          "internalType": "uint256",
          "name": "_DURATION_STEP",
          "type": "uint256"
        },
        {
          "internalType": "uint256",
          "name": "_discountRate",
          "type": "uint256"
        }
      ],
      "name": "setDutchAuction",
      "outputs": [],
      "stateMutability": "nonpayable",
      "type": "function"
    },
    {
      "inputs": [
        {
          "internalType": "address",
          "name": "_contract",
          "type": "address"
        }
      ],
      "name": "setKalaoContract",
      "outputs": [],
      "stateMutability": "nonpayable",
      "type": "function"
    },
    {
      "inputs": [
        {
          "internalType": "uint256",
          "name": "_START_DATE",
          "type": "uint256"
        }
      ],
      "name": "setPublicStartDate",
      "outputs": [],
      "stateMutability": "nonpayable",
      "type": "function"
    },
    {
      "inputs": [
        {
          "internalType": "address",
          "name": "_ROYALTY_RECIPIENT",
          "type": "address"
        }
      ],
      "name": "setRoyaltyAddress",
      "outputs": [],
      "stateMutability": "nonpayable",
      "type": "function"
    },
    {
      "inputs": [
        {
          "internalType": "uint256",
          "name": "_startDate",
          "type": "uint256"
        }
      ],
      "name": "setStartDate",
      "outputs": [],
      "stateMutability": "nonpayable",
      "type": "function"
    },
    {
      "inputs": [
        {
          "internalType": "bytes4",
          "name": "interfaceId",
          "type": "bytes4"
        }
      ],
      "name": "supportsInterface",
      "outputs": [
        {
          "internalType": "bool",
          "name": "",
          "type": "bool"
        }
      ],
      "stateMutability": "view",
      "type": "function"
    },
    {
      "inputs": [],
      "name": "symbol",
      "outputs": [
        {
          "internalType": "string",
          "name": "",
          "type": "string"
        }
      ],
      "stateMutability": "view",
      "type": "function"
    },
    {
      "inputs": [],
      "name": "toggleHasPublic",
      "outputs": [],
      "stateMutability": "nonpayable",
      "type": "function"
    },
    {
      "inputs": [],
      "name": "toggleHasWL",
      "outputs": [],
      "stateMutability": "nonpayable",
      "type": "function"
    },
    {
      "inputs": [],
      "name": "toggleMint",
      "outputs": [],
      "stateMutability": "nonpayable",
      "type": "function"
    },
    {
      "inputs": [
        {
          "internalType": "uint256",
          "name": "index",
          "type": "uint256"
        }
      ],
      "name": "tokenByIndex",
      "outputs": [
        {
          "internalType": "uint256",
          "name": "",
          "type": "uint256"
        }
      ],
      "stateMutability": "view",
      "type": "function"
    },
    {
      "inputs": [
        {
          "internalType": "address",
          "name": "owner",
          "type": "address"
        },
        {
          "internalType": "uint256",
          "name": "index",
          "type": "uint256"
        }
      ],
      "name": "tokenOfOwnerByIndex",
      "outputs": [
        {
          "internalType": "uint256",
          "name": "",
          "type": "uint256"
        }
      ],
      "stateMutability": "view",
      "type": "function"
    },
    {
      "inputs": [
        {
          "internalType": "uint256",
          "name": "tokenId",
          "type": "uint256"
        }
      ],
      "name": "tokenURI",
      "outputs": [
        {
          "internalType": "string",
          "name": "",
          "type": "string"
        }
      ],
      "stateMutability": "view",
      "type": "function"
    },
    {
      "inputs": [],
      "name": "totalSupply",
      "outputs": [
        {
          "internalType": "uint256",
          "name": "",
          "type": "uint256"
        }
      ],
      "stateMutability": "view",
      "type": "function"
    },
    {
      "inputs": [
        {
          "internalType": "address",
          "name": "from",
          "type": "address"
        },
        {
          "internalType": "address",
          "name": "to",
          "type": "address"
        },
        {
          "internalType": "uint256",
          "name": "tokenId",
          "type": "uint256"
        }
      ],
      "name": "transferFrom",
      "outputs": [],
      "stateMutability": "nonpayable",
      "type": "function"
    },
    {
      "inputs": [
        {
          "internalType": "address",
          "name": "newOwner",
          "type": "address"
        }
      ],
      "name": "transferOwnership",
      "outputs": [],
      "stateMutability": "nonpayable",
      "type": "function"
    },
    {
      "inputs": [
        {
          "internalType": "uint256",
          "name": "_WL_START_DATE",
          "type": "uint256"
        },
        {
          "internalType": "uint256",
          "name": "_WL_END_DATE",
          "type": "uint256"
        },
        {
          "internalType": "uint256",
          "name": "_MAX_WL_CLAIM",
          "type": "uint256"
        },
        {
          "internalType": "bytes32",
          "name": "_MERKLE_ROOT",
          "type": "bytes32"
        },
        {
          "internalType": "uint256",
          "name": "position",
          "type": "uint256"
        }
      ],
      "name": "updateWhiteList",
      "outputs": [],
      "stateMutability": "nonpayable",
      "type": "function"
    },
    {
      "inputs": [
        {
          "internalType": "uint256",
          "name": "n",
          "type": "uint256"
        },
        {
          "internalType": "bytes32[]",
          "name": "_proof",
          "type": "bytes32[]"
        },
        {
          "internalType": "uint256",
          "name": "position",
          "type": "uint256"
        }
      ],
      "name": "whiteListMint",
      "outputs": [],
      "stateMutability": "payable",
      "type": "function"
    },
    {
      "inputs": [
        {
          "internalType": "uint256",
          "name": "",
          "type": "uint256"
        },
        {
          "internalType": "address",
          "name": "",
          "type": "address"
        }
      ],
      "name": "whiteListMintAddresses",
      "outputs": [
        {
          "internalType": "uint256",
          "name": "",
          "type": "uint256"
        }
      ],
      "stateMutability": "view",
      "type": "function"
    },
    {
      "inputs": [
        {
          "internalType": "address",
          "name": "_whitelistedAddress",
          "type": "address"
        },
        {
          "internalType": "uint256",
          "name": "position",
          "type": "uint256"
        }
      ],
      "name": "whiteListMintedCount",
      "outputs": [
        {
          "internalType": "uint256",
          "name": "",
          "type": "uint256"
        }
      ],
      "stateMutability": "view",
      "type": "function"
    },
    {
      "inputs": [
        {
          "internalType": "uint256",
          "name": "",
          "type": "uint256"
        }
      ],
      "name": "whitelists",
      "outputs": [
        {
          "internalType": "uint256",
          "name": "WL_START_DATE",
          "type": "uint256"
        },
        {
          "internalType": "uint256",
          "name": "WL_END_DATE",
          "type": "uint256"
        },
        {
          "internalType": "uint256",
          "name": "MAX_WL_CLAIM",
          "type": "uint256"
        },
        {
          "internalType": "bytes32",
          "name": "MERKLE_ROOT",
          "type": "bytes32"
        }
      ],
      "stateMutability": "view",
      "type": "function"
    },
    {
      "inputs": [],
      "name": "withdraw",
      "outputs": [],
      "stateMutability": "nonpayable",
      "type": "function"
    },
    {
      "stateMutability": "payable",
      "type": "receive"
    }
  ],
  "bytecode": "0x6000600c81905560c0604081905260a08290526200002191600f919062000193565b50604080516020810191829052600090819052620000429160119162000193565b5060006012556001601355601d805462ff00ff1916620100011790553480156200006b57600080fd5b5060405162004534380380620045348339810160408190526200008e916200030d565b8488888160009080519060200190620000a992919062000193565b508051620000bf90600190602084019062000193565b505050620000dc620000d66200013d60201b60201c565b62000141565b6080528551620000f490601190602089019062000193565b50600e80546001600160a01b039586166001600160a01b031991821617909155601793909355601494909455601555602280549390921692169190911790555062000434915050565b3390565b600a80546001600160a01b038381166001600160a01b0319831681179093556040519116919082907f8be0079c531659141344cd1fd0a4f28419497f9722a3daafe3b4186f6b6457e090600090a35050565b828054620001a190620003e1565b90600052602060002090601f016020900481019282620001c5576000855562000210565b82601f10620001e057805160ff191683800117855562000210565b8280016001018555821562000210579182015b8281111562000210578251825591602001919060010190620001f3565b506200021e92915062000222565b5090565b5b808211156200021e576000815560010162000223565b80516001600160a01b03811681146200025157600080fd5b919050565b600082601f8301126200026857600080fd5b81516001600160401b03808211156200028557620002856200041e565b604051601f8301601f19908116603f01168101908282118183101715620002b057620002b06200041e565b81604052838152602092508683858801011115620002cd57600080fd5b600091505b83821015620002f15785820183015181830184015290820190620002d2565b83821115620003035760008385830101525b9695505050505050565b600080600080600080600080610100898b0312156200032b57600080fd5b88516001600160401b03808211156200034357600080fd5b620003518c838d0162000256565b995060208b01519150808211156200036857600080fd5b620003768c838d0162000256565b985060408b01519150808211156200038d57600080fd5b506200039c8b828c0162000256565b96505060608901519450620003b460808a0162000239565b935060a0890151925060c08901519150620003d260e08a0162000239565b90509295985092959890939650565b600181811c90821680620003f657607f821691505b602082108114156200041857634e487b7160e01b600052602260045260246000fd5b50919050565b634e487b7160e01b600052604160045260246000fd5b6080516140e462000450600039600061294401526140e46000f3fe6080604052600436106103815760003560e01c806370a08231116101cf578063ad9f20a611610101578063e985e9c51161009a578063fc7d57c31161006c578063fc7d57c314610a8d578063fde625e614610aa3578063fe4d5add14610ab9578063ff47f71c14610af957005b8063e985e9c5146109e2578063ead29d4e14610a2b578063eb91d37e14610a58578063f2fde38b14610a6d57005b8063d3dd5fe0116100d3578063d3dd5fe014610982578063d99dc83e14610997578063dbddb26a146109b7578063e6c0e6d5146109cc57005b8063ad9f20a61461090c578063b88d4fde14610922578063c87b56dd14610942578063cf66e6fe1461096257005b806393791b0311610173578063a22cb46511610145578063a22cb4651461088c578063a37da360146108ac578063accc1d5e146108cc578063ad5f2210146108ec57005b806393791b031461082e57806395d89b4114610844578063a0712d6814610859578063a0bcfc7f1461086c57005b80637ff32860116101ac5780637ff32860146107d957806382d95df5146105955780638a3662ec146107ef5780638da5cb5b1461081057005b806370a0823114610784578063715018a6146107a457806378f8d91a146107b957005b80633a97faf4116102b35780634f02c4201161024c5780636352211e1161021e5780636352211e1461071b5780636a455a971461073b5780636e0872311461074e5780636f7bf4ae1461076e57005b80634f02c420146106b05780634f6ccce7146106c65780635471f49f146106e657806357a8750d146106fb57005b806340cf442c1161028557806340cf442c1461060057806341826ee81461064257806342842e0e1461067a5780634345bf3d1461069a57005b80633a97faf4146105955780633ccfd60b146105b55780633e91b516146105ca5780633f879faf146105ea57005b806315147aee1161032557806323b872dd116102f757806323b872dd146104f65780632a55205a146105165780632d307c18146105555780632f745c591461057557005b806315147aee1461048e57806318160ddd146104b257806318f3707a146104c75780632072cab4146104dc57005b8063081812fc1161035e578063081812fc1461040157806308818bb814610439578063095ea7b31461044e5780630dc28efe1461046e57005b806301ffc9a71461038a57806306d254da146103bf57806306fdde03146103df57005b3661038857005b005b34801561039657600080fd5b506103aa6103a5366004613cde565b610b18565b60405190151581526020015b60405180910390f35b3480156103cb57600080fd5b506103886103da366004613ad6565b610b29565b3480156103eb57600080fd5b506103f4610b53565b6040516103b69190613f1f565b34801561040d57600080fd5b5061042161041c366004613d61565b610be5565b6040516001600160a01b0390911681526020016103b6565b34801561044557600080fd5b50610388610c0c565b34801561045a57600080fd5b50610388610469366004613c72565b610c33565b34801561047a57600080fd5b50610388610489366004613d7a565b610d6a565b34801561049a57600080fd5b506104a460155481565b6040519081526020016103b6565b3480156104be57600080fd5b506008546104a4565b3480156104d357600080fd5b50610388610f2b565b3480156104e857600080fd5b50601d546103aa9060ff1681565b34801561050257600080fd5b50610388610511366004613b24565b610f50565b34801561052257600080fd5b50610536610531366004613dd1565b610fc7565b604080516001600160a01b0390931683526020830191909152016103b6565b34801561056157600080fd5b50610388610570366004613e25565b611025565b34801561058157600080fd5b506104a4610590366004613c72565b6110a7565b3480156105a157600080fd5b506103886105b0366004613d61565b61114f565b3480156105c157600080fd5b5061038861115c565b3480156105d657600080fd5b506103886105e5366004613e25565b61123e565b3480156105f657600080fd5b506104a460145481565b34801561060c57600080fd5b506104a461061b366004613c72565b60009081526021602090815260408083206001600160a01b03949094168352929052205490565b34801561064e57600080fd5b506104a461065d366004613d7a565b602160209081526000928352604080842090915290825290205481565b34801561068657600080fd5b50610388610695366004613b24565b61125d565b3480156106a657600080fd5b506104a460165481565b3480156106bc57600080fd5b506104a460125481565b3480156106d257600080fd5b506104a46106e1366004613d61565b611278565b3480156106f257600080fd5b506104a4600a81565b34801561070757600080fd5b506103aa610716366004613bdc565b61131c565b34801561072757600080fd5b50610421610736366004613d61565b6113c8565b610388610749366004613d9d565b61142d565b34801561075a57600080fd5b50610388610769366004613df3565b611b39565b34801561077a57600080fd5b506104a460195481565b34801561079057600080fd5b506104a461079f366004613ad6565b611c39565b3480156107b057600080fd5b50610388611cd3565b3480156107c557600080fd5b50601d546103aa9062010000900460ff1681565b3480156107e557600080fd5b506104a4601b5481565b3480156107fb57600080fd5b50601d546103aa906301000000900460ff1681565b34801561081c57600080fd5b50600a546001600160a01b0316610421565b34801561083a57600080fd5b506104a460175481565b34801561085057600080fd5b506103f4611ce7565b610388610867366004613d61565b611cf6565b34801561087857600080fd5b50610388610887366004613d18565b612212565b34801561089857600080fd5b506103886108a7366004613c36565b612231565b3480156108b857600080fd5b506103886108c7366004613d7a565b61223c565b3480156108d857600080fd5b506103886108e7366004613c9c565b6123a6565b3480156108f857600080fd5b506103aa610907366004613ad6565b612420565b34801561091857600080fd5b506104a460185481565b34801561092e57600080fd5b5061038861093d366004613b60565b61244c565b34801561094e57600080fd5b506103f461095d366004613d61565b6124c4565b34801561096e57600080fd5b50602254610421906001600160a01b031681565b34801561098e57600080fd5b506103886125ad565b3480156109a357600080fd5b506103886109b2366004613ad6565b6125c9565b3480156109c357600080fd5b506103f46125f3565b3480156109d857600080fd5b506104a4601a5481565b3480156109ee57600080fd5b506103aa6109fd366004613af1565b6001600160a01b03918216600090815260056020908152604080832093909416825291909152205460ff1690565b348015610a3757600080fd5b506104a4610a46366004613ad6565b601f6020526000908152604090205481565b348015610a6457600080fd5b506104a4612681565b348015610a7957600080fd5b50610388610a88366004613ad6565b61270b565b348015610a9957600080fd5b506104a460135481565b348015610aaf57600080fd5b506104a4601c5481565b348015610ac557600080fd5b50610ad9610ad4366004613d61565b612798565b6040805194855260208501939093529183015260608201526080016103b6565b348015610b0557600080fd5b50601d546103aa90610100900460ff1681565b6000610b23826127d2565b92915050565b610b31612810565b600e80546001600160a01b0319166001600160a01b0392909216919091179055565b606060008054610b6290613fc0565b80601f0160208091040260200160405190810160405280929190818152602001828054610b8e90613fc0565b8015610bdb5780601f10610bb057610100808354040283529160200191610bdb565b820191906000526020600020905b815481529060010190602001808311610bbe57829003601f168201915b5050505050905090565b6000610bf08261286a565b506000908152600460205260409020546001600160a01b031690565b610c14612810565b601d805462ff0000198116620100009182900460ff1615909102179055565b6000610c3e826113c8565b9050806001600160a01b0316836001600160a01b03161415610ccd5760405162461bcd60e51b815260206004820152602160248201527f4552433732313a20617070726f76616c20746f2063757272656e74206f776e6560448201527f720000000000000000000000000000000000000000000000000000000000000060648201526084015b60405180910390fd5b336001600160a01b0382161480610ce95750610ce981336109fd565b610d5b5760405162461bcd60e51b815260206004820152603d60248201527f4552433732313a20617070726f76652063616c6c6572206973206e6f7420746f60448201527f6b656e206f776e6572206f7220617070726f76656420666f7220616c6c0000006064820152608401610cc4565b610d6583836128ce565b505050565b610d72612810565b60008211610dc25760405162461bcd60e51b815260206004820152601f60248201527f4e756d626572206e65656420746f20626520686967686572207468616e2030006044820152606401610cc4565b600a821115610e1e5760405162461bcd60e51b815260206004820152602260248201527f796f752063616e277420636c61696d2074686174206d756368206174206f756e604482015261636560f01b6064820152608401610cc4565b601d546301000000900460ff1615610e9e5760405162461bcd60e51b815260206004820152603860248201527f63616e2774206d696e7420696e206f726465722c20746f6b656e73206861766560448201527f20616c7265616479206265656e2072616e646f6d697a656400000000000000006064820152608401610cc4565b60005b82811015610d65576000601354610eb8600061293c565b610ec29190613f32565b9050610ece8382612a54565b600e54601754610eeb9183916001600160a01b0390911690612a6e565b60405160009082907fd996551a703bf267a3068bb00ce0d5967b05fbab9b7091219d8e95226e9e0e3d908390a35080610f2381613ffb565b915050610ea1565b610f33612810565b601d805461ff001981166101009182900460ff1615909102179055565b610f5a3382612b2f565b610fbc5760405162461bcd60e51b815260206004820152602d60248201527f4552433732313a2063616c6c6572206973206e6f7420746f6b656e206f776e6560448201526c1c881bdc88185c1c1c9bdd9959609a1b6064820152608401610cc4565b610d65838383612bad565b6000828152600b602090815260408083208151808301909252546001600160a01b038116808352600160a01b90910462ffffff169282018390529291612710906110119086613f5e565b61101b9190613f4a565b9150509250929050565b61102d612810565b6000604051806080016040528087815260200186815260200185815260200184815250905080601e83815481106110665761106661406c565b906000526020600020906004020160008201518160000155602082015181600101556040820151816002015560608201518160030155905050505050505050565b60006110b283611c39565b82106111265760405162461bcd60e51b815260206004820152602b60248201527f455243373231456e756d657261626c653a206f776e657220696e646578206f7560448201527f74206f6620626f756e64730000000000000000000000000000000000000000006064820152608401610cc4565b506001600160a01b03919091166000908152600660209081526040808320938352929052205490565b611157612810565b601b55565b33600090815260208052604090205460ff1615156001146111bf5760405162461bcd60e51b815260206004820152601660248201527f596f757220617265206e6f7420746865206f776e6572000000000000000000006044820152606401610cc4565b6000471161120f5760405162461bcd60e51b815260206004820152601360248201527f4e6f7468696e6720746f207769746864726177000000000000000000000000006044820152606401610cc4565b60405133904780156108fc02916000818181858888f1935050505015801561123b573d6000803e3d6000fd5b50565b611246612810565b601b94909455601692909255601855601955601a55565b610d658383836040518060200160405280600081525061244c565b600061128360085490565b82106112f75760405162461bcd60e51b815260206004820152602c60248201527f455243373231456e756d657261626c653a20676c6f62616c20696e646578206f60448201527f7574206f6620626f756e647300000000000000000000000000000000000000006064820152608401610cc4565b6008828154811061130a5761130a61406c565b90600052602060002001549050919050565b6040516bffffffffffffffffffffffff19606086901b16602082015260009081906034016040516020818303038152906040528051906020012090506113bc85858080602002602001604051908101604052809392919081815260200183836020028082843760009201919091525050601e805490925087915081106113a4576113a461406c565b90600052602060002090600402016003015483612db3565b9150505b949350505050565b6000818152600260205260408120546001600160a01b031680610b235760405162461bcd60e51b815260206004820152601860248201527f4552433732313a20696e76616c696420746f6b656e20494400000000000000006044820152606401610cc4565b601d54610100900460ff166114aa5760405162461bcd60e51b815260206004820152602560248201527f4e6f2077686974656c6973742061737369676e656420746f207468697320707260448201527f6f6a6563740000000000000000000000000000000000000000000000000000006064820152608401610cc4565b601e81815481106114bd576114bd61406c565b9060005260206000209060040201600001544210156115105760405162461bcd60e51b815260206004820152600f60248201526e139bdd081cdd185c9d1959081e595d608a1b6044820152606401610cc4565b601e81815481106115235761152361406c565b90600052602060002090600402016001015442106115835760405162461bcd60e51b815260206004820152601960248201527f57686974656c6973742073616c65732068617320656e646564000000000000006044820152606401610cc4565b601d5460ff1615156001146115da5760405162461bcd60e51b815260206004820152601860248201527f4d696e742069732063757272656e746c7920636c6f73656400000000000000006044820152606401610cc4565b601b5442101561161e5760405162461bcd60e51b815260206004820152600f60248201526e139bdd081cdd185c9d1959081e595d608a1b6044820152606401610cc4565b60145460085461162e9086613f32565b111561167c5760405162461bcd60e51b815260206004820152601860248201527f4e6f7420656e6f756768206c65667420746f206d696e742e00000000000000006044820152606401610cc4565b600084116116cc5760405162461bcd60e51b815260206004820152601f60248201527f4e756d626572206e65656420746f20626520686967686572207468616e2030006044820152606401610cc4565b600a84111561171d5760405162461bcd60e51b815260206004820152601360248201527f4d61782070657220636c61696d206973203130000000000000000000000000006044820152606401610cc4565b6040516bffffffffffffffffffffffff193360601b1660208201526000906034016040516020818303038152906040528051906020012090506117a284848080602002602001604051908101604052809392919081815260200183836020028082843760009201919091525050601e805490925086915081106113a4576113a461406c565b6117ee5760405162461bcd60e51b815260206004820152601460248201527f496e76616c6964204d65726b6c652050726f6f660000000000000000000000006044820152606401610cc4565b60006117f8612681565b90506118048682613f5e565b34101561185f5760405162461bcd60e51b815260206004820152602360248201527f45746865722076616c75652073656e742069732062656c6f772074686520707260448201526269636560e81b6064820152608401610cc4565b6000601e84815481106118745761187461406c565b90600052602060002090600402016002015411156119df57601e838154811061189f5761189f61406c565b600091825260208083206002600490930201919091015485835260218252604080842033855290925291205411156119195760405162461bcd60e51b815260206004820152601760248201527f596f752063616e277420636c61696d20616e796d6f72650000000000000000006044820152606401610cc4565b601e838154811061192c5761192c61406c565b60009182526020808320600260049093020191909101548583526021825260408084203385529092529120546119629088613f32565b11156119b05760405162461bcd60e51b815260206004820152601960248201527f796f752063616e277420636c61696d2074686174206d756368000000000000006044820152606401610cc4565b6000838152602160209081526040808320338452909152812080548892906119d9908490613f32565b90915550505b60006119eb8783613f5e565b905060006119f98234613f7d565b604051909150309083156108fc029084906000818181858888f19350505050158015611a29573d6000803e3d6000fd5b5060005b88811015611ab8576000601354611a44600161293c565b611a4e9190613f32565b9050611a5b335b82612a54565b600e54601754611a789183916001600160a01b0390911690612a6e565b604051859082907fd996551a703bf267a3068bb00ce0d5967b05fbab9b7091219d8e95226e9e0e3d90600090a35080611ab081613ffb565b915050611a2d565b50601c839055601d546301000000900460ff16611ae357601d805463ff000000191663010000001790555b8015611b1857604051339082156108fc029083906000818181858888f19350505050158015611b16573d6000803e3d6000fd5b505b602254611b2f906001600160a01b03166001612231565b5050505050505050565b611b41612810565b604080516080810182528581526020810185815291810184815260608201848152601e805460018101825560009190915283517f50bb669a95c7b50b7e8a6f09454034b2b14cf2b85c730dca9a539ca82cb6e35060049092029182015593517f50bb669a95c7b50b7e8a6f09454034b2b14cf2b85c730dca9a539ca82cb6e35185015590517f50bb669a95c7b50b7e8a6f09454034b2b14cf2b85c730dca9a539ca82cb6e352840155517f50bb669a95c7b50b7e8a6f09454034b2b14cf2b85c730dca9a539ca82cb6e35390920191909155601d54610100900460ff16611c3257601d805461ff0019166101001790555b5050505050565b60006001600160a01b038216611cb75760405162461bcd60e51b815260206004820152602960248201527f4552433732313a2061646472657373207a65726f206973206e6f74206120766160448201527f6c6964206f776e657200000000000000000000000000000000000000000000006064820152608401610cc4565b506001600160a01b031660009081526003602052604090205490565b611cdb612810565b611ce56000612dc9565b565b606060018054610b6290613fc0565b601d5462010000900460ff16611d745760405162461bcd60e51b815260206004820152602760248201527f4e6f207075626c69632073616c652061737369676e656420746f20746869732060448201527f70726f6a656374000000000000000000000000000000000000000000000000006064820152608401610cc4565b601d5460ff16611dec5760405162461bcd60e51b815260206004820152602360248201527f49742773206e6f7420706f737369626c6520746f20636c61696d206a7573742060448201527f79657400000000000000000000000000000000000000000000000000000000006064820152608401610cc4565b601b54421015611e305760405162461bcd60e51b815260206004820152600f60248201526e139bdd081cdd185c9d1959081e595d608a1b6044820152606401610cc4565b601454600854611e409083613f32565b1115611e8e5760405162461bcd60e51b815260206004820152601860248201527f4e6f7420656e6f756768206c65667420746f206d696e742e00000000000000006044820152606401610cc4565b60008111611ede5760405162461bcd60e51b815260206004820152601f60248201527f4e756d626572206e65656420746f20626520686967686572207468616e2030006044820152606401610cc4565b600a811115611f2f5760405162461bcd60e51b815260206004820152601360248201527f4d61782070657220636c61696d206973203130000000000000000000000000006044820152606401610cc4565b6000611f39612681565b9050611f458282613f5e565b341015611fa05760405162461bcd60e51b815260206004820152602360248201527f45746865722076616c75652073656e742069732062656c6f772074686520707260448201526269636560e81b6064820152608401610cc4565b601554156120be57601554336000908152601f60205260409020541061202e5760405162461bcd60e51b815260206004820152602760248201527f616d6f756e74206578636565647320746865207075626c6963206d696e74696e60448201527f67206c696d6974000000000000000000000000000000000000000000000000006064820152608401610cc4565b601554336000908152601f602052604090205461204b9084613f32565b11156120995760405162461bcd60e51b815260206004820152601960248201527f796f752063616e277420636c61696d2074686174206d756368000000000000006044820152606401610cc4565b336000908152601f6020526040812080548492906120b8908490613f32565b90915550505b60006120ca8383613f5e565b905060006120d88234613f7d565b604051909150309083156108fc029084906000818181858888f19350505050158015612108573d6000803e3d6000fd5b5060005b84811015612195576000601354612123600161293c565b61212d9190613f32565b905061213833611a55565b600e546017546121559183916001600160a01b0390911690612a6e565b604051859082907fd996551a703bf267a3068bb00ce0d5967b05fbab9b7091219d8e95226e9e0e3d90600090a3508061218d81613ffb565b91505061210c565b50601c839055601d546301000000900460ff166121c057601d805463ff000000191663010000001790555b80156121f557604051339082156108fc029083906000818181858888f193505050501580156121f3573d6000803e3d6000fd5b505b60225461220c906001600160a01b03166001612231565b50505050565b61221a612810565b805161222d906011906020840190613964565b5050565b61222d338383612e1b565b612244612810565b600082116122945760405162461bcd60e51b815260206004820152601f60248201527f4e756d626572206e65656420746f20626520686967686572207468616e2030006044820152606401610cc4565b600a8211156122f05760405162461bcd60e51b815260206004820152602260248201527f796f752063616e277420636c61696d2074686174206d756368206174206f756e604482015261636560f01b6064820152608401610cc4565b60005b8281101561237d57600060135461230a600161293c565b6123149190613f32565b90506123208382612a54565b600e5460175461233d9183916001600160a01b0390911690612a6e565b60405160009082907fd996551a703bf267a3068bb00ce0d5967b05fbab9b7091219d8e95226e9e0e3d908390a3508061237581613ffb565b9150506122f3565b50601d546301000000900460ff1661222d57601d805463ff000000191663010000001790555050565b6123ae612810565b60005b81811015610d65576001602060008585858181106123d1576123d161406c565b90506020020160208101906123e69190613ad6565b6001600160a01b031681526020810191909152604001600020805460ff19169115159190911790558061241881613ffb565b9150506123b1565b600061242a612810565b506001600160a01b038116600090815260208052604090205460ff165b919050565b6124563383612b2f565b6124b85760405162461bcd60e51b815260206004820152602d60248201527f4552433732313a2063616c6c6572206973206e6f7420746f6b656e206f776e6560448201526c1c881bdc88185c1c1c9bdd9959609a1b6064820152608401610cc4565b61220c84848484612eea565b6000818152600260205260409020546060906001600160a01b03166125515760405162461bcd60e51b815260206004820152602f60248201527f4552433732314d657461646174613a2055524920717565727920666f72206e6f60448201527f6e6578697374656e7420746f6b656e00000000000000000000000000000000006064820152608401610cc4565b600061255b612f68565b9050600081511161257b57604051806020016040528060008152506125a6565b8061258584612f8d565b604051602001612596929190613e8c565b6040516020818303038152906040525b9392505050565b6125b5612810565b601d805460ff19811660ff90911615179055565b6125d1612810565b602280546001600160a01b0319166001600160a01b0392909216919091179055565b6011805461260090613fc0565b80601f016020809104026020016040519081016040528092919081815260200182805461262c90613fc0565b80156126795780601f1061264e57610100808354040283529160200191612679565b820191906000526020600020905b81548152906001019060200180831161265c57829003601f168201915b505050505081565b600080601b54426126929190613f7d565b90506000601954826126a49190613f4a565b90506000601a54826126b69190613f5e565b90506000601b5442106126ff578160165410156126d95760185494505050505090565b816016546126e79190613f7d565b90506018548110156113c05760185494505050505090565b60165494505050505090565b612713612810565b6001600160a01b03811661278f5760405162461bcd60e51b815260206004820152602660248201527f4f776e61626c653a206e6577206f776e657220697320746865207a65726f206160448201527f64647265737300000000000000000000000000000000000000000000000000006064820152608401610cc4565b61123b81612dc9565b601e81815481106127a857600080fd5b60009182526020909120600490910201805460018201546002830154600390930154919350919084565b60006001600160e01b031982167f2a55205a000000000000000000000000000000000000000000000000000000001480610b235750610b2382613037565b600a546001600160a01b03163314611ce55760405162461bcd60e51b815260206004820181905260248201527f4f776e61626c653a2063616c6c6572206973206e6f7420746865206f776e65726044820152606401610cc4565b6000818152600260205260409020546001600160a01b031661123b5760405162461bcd60e51b815260206004820152601860248201527f4552433732313a20696e76616c696420746f6b656e20494400000000000000006044820152606401610cc4565b600081815260046020526040902080546001600160a01b0319166001600160a01b0384169081179091558190612903826113c8565b6001600160a01b03167f8c5be1e5ebec7d5bd14f71427d1e84f3dd0314c0f7b2291e5b200ac8c7c3b92560405160405180910390a45050565b600080600c547f000000000000000000000000000000000000000000000000000000000000000061296d9190613f7d565b9050600080600085156129945783612983613075565b61298d9190614016565b9050612999565b50600c545b600d60006129a8600187613f7d565b815260200190815260200160002054600014156129d1576129ca600185613f7d565b92506129f2565b600d60006129e0600187613f7d565b81526020019081526020016000205492505b6000818152600d6020526040902054612a1e576000818152600d60205260409020839055905080612a35565b6000818152600d6020526040902080549084905591505b600c8054906000612a4583613ffb565b90915550919695505050505050565b61222d8282604051806020016040528060008152506130b1565b612710811115612ac05760405162461bcd60e51b815260206004820152601a60248201527f45524332393831526f79616c746965733a20546f6f20686967680000000000006044820152606401610cc4565b6040805180820182526001600160a01b03938416815262ffffff92831660208083019182526000968752600b905291909420935184549151909216600160a01b027fffffffffffffffffff00000000000000000000000000000000000000000000009091169190921617179055565b600080612b3b836113c8565b9050806001600160a01b0316846001600160a01b03161480612b8257506001600160a01b0380821660009081526005602090815260408083209388168352929052205460ff165b806113c05750836001600160a01b0316612b9b84610be5565b6001600160a01b031614949350505050565b826001600160a01b0316612bc0826113c8565b6001600160a01b031614612c245760405162461bcd60e51b815260206004820152602560248201527f4552433732313a207472616e736665722066726f6d20696e636f72726563742060448201526437bbb732b960d91b6064820152608401610cc4565b6001600160a01b038216612c9f5760405162461bcd60e51b8152602060048201526024808201527f4552433732313a207472616e7366657220746f20746865207a65726f2061646460448201527f72657373000000000000000000000000000000000000000000000000000000006064820152608401610cc4565b612cac838383600161312f565b826001600160a01b0316612cbf826113c8565b6001600160a01b031614612d235760405162461bcd60e51b815260206004820152602560248201527f4552433732313a207472616e736665722066726f6d20696e636f72726563742060448201526437bbb732b960d91b6064820152608401610cc4565b600081815260046020908152604080832080546001600160a01b03199081169091556001600160a01b0387811680865260038552838620805460001901905590871680865283862080546001019055868652600290945282852080549092168417909155905184937fddf252ad1be2c89b69c2b068fc378daa952ba7f163c4a11628f55a4df523b3ef91a4505050565b600082612dc08584613270565b14949350505050565b600a80546001600160a01b038381166001600160a01b0319831681179093556040519116919082907f8be0079c531659141344cd1fd0a4f28419497f9722a3daafe3b4186f6b6457e090600090a35050565b816001600160a01b0316836001600160a01b03161415612e7d5760405162461bcd60e51b815260206004820152601960248201527f4552433732313a20617070726f766520746f2063616c6c6572000000000000006044820152606401610cc4565b6001600160a01b03838116600081815260056020908152604080832094871680845294825291829020805460ff191686151590811790915591519182527f17307eab39ab6107e8899845ad3d59bd9653f200f220920489ca2b5937696c31910160405180910390a3505050565b612ef5848484612bad565b612f01848484846132b5565b61220c5760405162461bcd60e51b815260206004820152603260248201527f4552433732313a207472616e7366657220746f206e6f6e20455243373231526560448201527131b2b4bb32b91034b6b83632b6b2b73a32b960711b6064820152608401610cc4565b60606010544210612f8057600f8054610b6290613fc0565b60118054610b6290613fc0565b60606000612f9a8361340a565b600101905060008167ffffffffffffffff811115612fba57612fba614082565b6040519080825280601f01601f191660200182016040528015612fe4576020820181803683370190505b5090508181016020015b600019017f3031323334353637383961626364656600000000000000000000000000000000600a86061a8153600a850494508461302a5761302f565b612fee565b509392505050565b60006001600160e01b031982167f780e9d63000000000000000000000000000000000000000000000000000000001480610b235750610b23826134ec565b60004442604051602001613093929190918252602082015260400190565b6040516020818303038152906040528051906020012060001c905090565b6130bb8383613587565b6130c860008484846132b5565b610d655760405162461bcd60e51b815260206004820152603260248201527f4552433732313a207472616e7366657220746f206e6f6e20455243373231526560448201527131b2b4bb32b91034b6b83632b6b2b73a32b960711b6064820152608401610cc4565b61313b84848484613720565b60018111156131b25760405162461bcd60e51b815260206004820152603560248201527f455243373231456e756d657261626c653a20636f6e736563757469766520747260448201527f616e7366657273206e6f7420737570706f7274656400000000000000000000006064820152608401610cc4565b816001600160a01b03851661320e5761320981600880546000838152600960205260408120829055600182018355919091527ff3f7a9fe364faab93b216da50a3214154f22a0a2b415b23a84c8169e8b636ee30155565b613231565b836001600160a01b0316856001600160a01b0316146132315761323185826137a8565b6001600160a01b03841661324d5761324881613845565b611c32565b846001600160a01b0316846001600160a01b031614611c3257611c3284826138f4565b600081815b845181101561302f576132a1828683815181106132945761329461406c565b6020026020010151613938565b9150806132ad81613ffb565b915050613275565b60006001600160a01b0384163b1561340257604051630a85bd0160e11b81526001600160a01b0385169063150b7a02906132f9903390899088908890600401613ee3565b602060405180830381600087803b15801561331357600080fd5b505af1925050508015613343575060408051601f3d908101601f1916820190925261334091810190613cfb565b60015b6133e8573d808015613371576040519150601f19603f3d011682016040523d82523d6000602084013e613376565b606091505b5080516133e05760405162461bcd60e51b815260206004820152603260248201527f4552433732313a207472616e7366657220746f206e6f6e20455243373231526560448201527131b2b4bb32b91034b6b83632b6b2b73a32b960711b6064820152608401610cc4565b805181602001fd5b6001600160e01b031916630a85bd0160e11b1490506113c0565b5060016113c0565b6000807a184f03e93ff9f4daa797ed6e38ed64bf6a1f0100000000000000008310613453577a184f03e93ff9f4daa797ed6e38ed64bf6a1f010000000000000000830492506040015b6d04ee2d6d415b85acef8100000000831061347f576d04ee2d6d415b85acef8100000000830492506020015b662386f26fc10000831061349d57662386f26fc10000830492506010015b6305f5e10083106134b5576305f5e100830492506008015b61271083106134c957612710830492506004015b606483106134db576064830492506002015b600a8310610b235760010192915050565b60006001600160e01b031982167f80ac58cd00000000000000000000000000000000000000000000000000000000148061354f57506001600160e01b031982167f5b5e139f00000000000000000000000000000000000000000000000000000000145b80610b2357507f01ffc9a7000000000000000000000000000000000000000000000000000000006001600160e01b0319831614610b23565b6001600160a01b0382166135dd5760405162461bcd60e51b815260206004820181905260248201527f4552433732313a206d696e7420746f20746865207a65726f20616464726573736044820152606401610cc4565b6000818152600260205260409020546001600160a01b0316156136425760405162461bcd60e51b815260206004820152601c60248201527f4552433732313a20746f6b656e20616c7265616479206d696e746564000000006044820152606401610cc4565b61365060008383600161312f565b6000818152600260205260409020546001600160a01b0316156136b55760405162461bcd60e51b815260206004820152601c60248201527f4552433732313a20746f6b656e20616c7265616479206d696e746564000000006044820152606401610cc4565b6001600160a01b038216600081815260036020908152604080832080546001019055848352600290915280822080546001600160a01b0319168417905551839291907fddf252ad1be2c89b69c2b068fc378daa952ba7f163c4a11628f55a4df523b3ef908290a45050565b600181111561220c576001600160a01b03841615613766576001600160a01b03841660009081526003602052604081208054839290613760908490613f7d565b90915550505b6001600160a01b0383161561220c576001600160a01b0383166000908152600360205260408120805483929061379d908490613f32565b909155505050505050565b600060016137b584611c39565b6137bf9190613f7d565b600083815260076020526040902054909150808214613812576001600160a01b03841660009081526006602090815260408083208584528252808320548484528184208190558352600790915290208190555b5060009182526007602090815260408084208490556001600160a01b039094168352600681528383209183525290812055565b60085460009061385790600190613f7d565b6000838152600960205260408120546008805493945090928490811061387f5761387f61406c565b9060005260206000200154905080600883815481106138a0576138a061406c565b60009182526020808320909101929092558281526009909152604080822084905585825281205560088054806138d8576138d8614056565b6001900381819060005260206000200160009055905550505050565b60006138ff83611c39565b6001600160a01b039093166000908152600660209081526040808320868452825280832085905593825260079052919091209190915550565b60008183106139545760008281526020849052604090206125a6565b5060009182526020526040902090565b82805461397090613fc0565b90600052602060002090601f01602090048101928261399257600085556139d8565b82601f106139ab57805160ff19168380011785556139d8565b828001600101855582156139d8579182015b828111156139d85782518255916020019190600101906139bd565b506139e49291506139e8565b5090565b5b808211156139e457600081556001016139e9565b600067ffffffffffffffff80841115613a1857613a18614082565b604051601f8501601f19908116603f01168101908282118183101715613a4057613a40614082565b81604052809350858152868686011115613a5957600080fd5b858560208301376000602087830101525050509392505050565b80356001600160a01b038116811461244757600080fd5b60008083601f840112613a9c57600080fd5b50813567ffffffffffffffff811115613ab457600080fd5b6020830191508360208260051b8501011115613acf57600080fd5b9250929050565b600060208284031215613ae857600080fd5b6125a682613a73565b60008060408385031215613b0457600080fd5b613b0d83613a73565b9150613b1b60208401613a73565b90509250929050565b600080600060608486031215613b3957600080fd5b613b4284613a73565b9250613b5060208501613a73565b9150604084013590509250925092565b60008060008060808587031215613b7657600080fd5b613b7f85613a73565b9350613b8d60208601613a73565b925060408501359150606085013567ffffffffffffffff811115613bb057600080fd5b8501601f81018713613bc157600080fd5b613bd0878235602084016139fd565b91505092959194509250565b60008060008060608587031215613bf257600080fd5b613bfb85613a73565b9350602085013567ffffffffffffffff811115613c1757600080fd5b613c2387828801613a8a565b9598909750949560400135949350505050565b60008060408385031215613c4957600080fd5b613c5283613a73565b915060208301358015158114613c6757600080fd5b809150509250929050565b60008060408385031215613c8557600080fd5b613c8e83613a73565b946020939093013593505050565b60008060208385031215613caf57600080fd5b823567ffffffffffffffff811115613cc657600080fd5b613cd285828601613a8a565b90969095509350505050565b600060208284031215613cf057600080fd5b81356125a681614098565b600060208284031215613d0d57600080fd5b81516125a681614098565b600060208284031215613d2a57600080fd5b813567ffffffffffffffff811115613d4157600080fd5b8201601f81018413613d5257600080fd5b6113c0848235602084016139fd565b600060208284031215613d7357600080fd5b5035919050565b60008060408385031215613d8d57600080fd5b82359150613b1b60208401613a73565b60008060008060608587031215613db357600080fd5b84359350602085013567ffffffffffffffff811115613c1757600080fd5b60008060408385031215613de457600080fd5b50508035926020909101359150565b60008060008060808587031215613e0957600080fd5b5050823594602084013594506040840135936060013592509050565b600080600080600060a08688031215613e3d57600080fd5b505083359560208501359550604085013594606081013594506080013592509050565b60008151808452613e78816020860160208601613f94565b601f01601f19169290920160200192915050565b60008351613e9e818460208801613f94565b835190830190613eb2818360208801613f94565b7f2e6a736f6e0000000000000000000000000000000000000000000000000000009101908152600501949350505050565b60006001600160a01b03808716835280861660208401525083604083015260806060830152613f156080830184613e60565b9695505050505050565b6020815260006125a66020830184613e60565b60008219821115613f4557613f4561402a565b500190565b600082613f5957613f59614040565b500490565b6000816000190483118215151615613f7857613f7861402a565b500290565b600082821015613f8f57613f8f61402a565b500390565b60005b83811015613faf578181015183820152602001613f97565b8381111561220c5750506000910152565b600181811c90821680613fd457607f821691505b60208210811415613ff557634e487b7160e01b600052602260045260246000fd5b50919050565b600060001982141561400f5761400f61402a565b5060010190565b60008261402557614025614040565b500690565b634e487b7160e01b600052601160045260246000fd5b634e487b7160e01b600052601260045260246000fd5b634e487b7160e01b600052603160045260246000fd5b634e487b7160e01b600052603260045260246000fd5b634e487b7160e01b600052604160045260246000fd5b6001600160e01b03198116811461123b57600080fdfea264697066735822122076179fe1dac8dadf275cc1a3908f0c75736905f81cc42963b3b0a27330eda13b64736f6c63430008070033",
  "linkReferences": {},
  "deployedLinkReferences": {}
}