{
  "_format": "hh-sol-artifact-1",
  "contractName": "ERC721Configurator",
  "sourceName": "contracts/ERC721Configurator.sol",
  "abi": [
    {
      "inputs": [
        {
          "internalType": "string",
          "name": "_name",
          "type": "string"
        },
        {
          "internalType": "string",
          "name": "_symbol",
          "type": "string"
        },
        {
          "internalType": "string",
          "name": "_baseTokenURI",
          "type": "string"
        },
        {
          "internalType": "string",
          "name": "_revealURI",
          "type": "string"
        },
        {
          "internalType": "uint256",
          "name": "_MAX_MINTABLE",
          "type": "uint256"
        },
        {
          "internalType": "address",
          "name": "_ROYALTY_RECIPIENT",
          "type": "address"
        },
        {
          "internalType": "uint256",
          "name": "_ROYALTY_VALUE",
          "type": "uint256"
        },
        {
          "internalType": "uint256",
          "name": "_START_DATE",
          "type": "uint256"
        },
        {
          "internalType": "uint256",
          "name": "_PUBLIC_PRICE",
          "type": "uint256"
        },
        {
          "internalType": "uint256",
          "name": "_REVEAL_DATE",
          "type": "uint256"
        },
        {
          "internalType": "uint256",
          "name": "_MAX_PUBLIC_CLAIM",
          "type": "uint256"
        }
      ],
      "stateMutability": "nonpayable",
      "type": "constructor"
    },
    {
      "anonymous": false,
      "inputs": [
        {
          "indexed": true,
          "internalType": "address",
          "name": "owner",
          "type": "address"
        },
        {
          "indexed": true,
          "internalType": "address",
          "name": "approved",
          "type": "address"
        },
        {
          "indexed": true,
          "internalType": "uint256",
          "name": "tokenId",
          "type": "uint256"
        }
      ],
      "name": "Approval",
      "type": "event"
    },
    {
      "anonymous": false,
      "inputs": [
        {
          "indexed": true,
          "internalType": "address",
          "name": "owner",
          "type": "address"
        },
        {
          "indexed": true,
          "internalType": "address",
          "name": "operator",
          "type": "address"
        },
        {
          "indexed": false,
          "internalType": "bool",
          "name": "approved",
          "type": "bool"
        }
      ],
      "name": "ApprovalForAll",
      "type": "event"
    },
    {
      "anonymous": false,
      "inputs": [
        {
          "indexed": true,
          "internalType": "uint256",
          "name": "_id",
          "type": "uint256"
        }
      ],
      "name": "MINT",
      "type": "event"
    },
    {
      "anonymous": false,
      "inputs": [
        {
          "indexed": true,
          "internalType": "address",
          "name": "previousOwner",
          "type": "address"
        },
        {
          "indexed": true,
          "internalType": "address",
          "name": "newOwner",
          "type": "address"
        }
      ],
      "name": "OwnershipTransferred",
      "type": "event"
    },
    {
      "anonymous": false,
      "inputs": [
        {
          "indexed": true,
          "internalType": "address",
          "name": "from",
          "type": "address"
        },
        {
          "indexed": true,
          "internalType": "address",
          "name": "to",
          "type": "address"
        },
        {
          "indexed": true,
          "internalType": "uint256",
          "name": "tokenId",
          "type": "uint256"
        }
      ],
      "name": "Transfer",
      "type": "event"
    },
    {
      "anonymous": false,
      "inputs": [
        {
          "indexed": true,
          "internalType": "uint256",
          "name": "_id",
          "type": "uint256"
        }
      ],
      "name": "WL_MINT",
      "type": "event"
    },
    {
      "stateMutability": "payable",
      "type": "fallback"
    },
    {
      "inputs": [],
      "name": "BASE_URI",
      "outputs": [
        {
          "internalType": "string",
          "name": "",
          "type": "string"
        }
      ],
      "stateMutability": "view",
      "type": "function"
    },
    {
      "inputs": [],
      "name": "HAS_PUBLIC",
      "outputs": [
        {
          "internalType": "bool",
          "name": "",
          "type": "bool"
        }
      ],
      "stateMutability": "view",
      "type": "function"
    },
    {
      "inputs": [],
      "name": "HAS_WL",
      "outputs": [
        {
          "internalType": "bool",
          "name": "",
          "type": "bool"
        }
      ],
      "stateMutability": "view",
      "type": "function"
    },
    {
      "inputs": [],
      "name": "KALAO_CONTRACT",
      "outputs": [
        {
          "internalType": "address",
          "name": "",
          "type": "address"
        }
      ],
      "stateMutability": "view",
      "type": "function"
    },
    {
      "inputs": [],
      "name": "MAX_MINTABLE",
      "outputs": [
        {
          "internalType": "uint256",
          "name": "",
          "type": "uint256"
        }
      ],
      "stateMutability": "view",
      "type": "function"
    },
    {
      "inputs": [],
      "name": "MAX_PER_CLAIM",
      "outputs": [
        {
          "internalType": "uint256",
          "name": "",
          "type": "uint256"
        }
      ],
      "stateMutability": "view",
      "type": "function"
    },
    {
      "inputs": [],
      "name": "MAX_PUBLIC_CLAIM",
      "outputs": [
        {
          "internalType": "uint256",
          "name": "",
          "type": "uint256"
        }
      ],
      "stateMutability": "view",
      "type": "function"
    },
    {
      "inputs": [],
      "name": "OPEN_SALES",
      "outputs": [
        {
          "internalType": "bool",
          "name": "",
          "type": "bool"
        }
      ],
      "stateMutability": "view",
      "type": "function"
    },
    {
      "inputs": [],
      "name": "PUBLIC_PRICE",
      "outputs": [
        {
          "internalType": "uint256",
          "name": "",
          "type": "uint256"
        }
      ],
      "stateMutability": "view",
      "type": "function"
    },
    {
      "inputs": [],
      "name": "PUBLIC_START_DATE",
      "outputs": [
        {
          "internalType": "uint256",
          "name": "",
          "type": "uint256"
        }
      ],
      "stateMutability": "view",
      "type": "function"
    },
    {
      "inputs": [],
      "name": "RANDOMIZED",
      "outputs": [
        {
          "internalType": "bool",
          "name": "",
          "type": "bool"
        }
      ],
      "stateMutability": "view",
      "type": "function"
    },
    {
      "inputs": [],
      "name": "ROYALTY_VALUE",
      "outputs": [
        {
          "internalType": "uint256",
          "name": "",
          "type": "uint256"
        }
      ],
      "stateMutability": "view",
      "type": "function"
    },
    {
      "inputs": [
        {
          "internalType": "uint256",
          "name": "_WL_START_DATE",
          "type": "uint256"
        },
        {
          "internalType": "uint256",
          "name": "_WL_END_DATE",
          "type": "uint256"
        },
        {
          "internalType": "uint256",
          "name": "_MAX_WL_CLAIM",
          "type": "uint256"
        },
        {
          "internalType": "uint256",
          "name": "_WL_PRICE",
          "type": "uint256"
        },
        {
          "internalType": "bytes32",
          "name": "_MERKLE_ROOT",
          "type": "bytes32"
        }
      ],
      "name": "addWhiteList",
      "outputs": [],
      "stateMutability": "nonpayable",
      "type": "function"
    },
    {
      "inputs": [
        {
          "internalType": "uint256",
          "name": "n",
          "type": "uint256"
        },
        {
          "internalType": "address",
          "name": "adr",
          "type": "address"
        }
      ],
      "name": "adminMint",
      "outputs": [],
      "stateMutability": "nonpayable",
      "type": "function"
    },
    {
      "inputs": [
        {
          "internalType": "uint256",
          "name": "n",
          "type": "uint256"
        },
        {
          "internalType": "address",
          "name": "adr",
          "type": "address"
        }
      ],
      "name": "adminRandomMint",
      "outputs": [],
      "stateMutability": "nonpayable",
      "type": "function"
    },
    {
      "inputs": [
        {
          "internalType": "address",
          "name": "to",
          "type": "address"
        },
        {
          "internalType": "uint256",
          "name": "tokenId",
          "type": "uint256"
        }
      ],
      "name": "approve",
      "outputs": [],
      "stateMutability": "nonpayable",
      "type": "function"
    },
    {
      "inputs": [
        {
          "internalType": "address",
          "name": "owner",
          "type": "address"
        }
      ],
      "name": "balanceOf",
      "outputs": [
        {
          "internalType": "uint256",
          "name": "",
          "type": "uint256"
        }
      ],
      "stateMutability": "view",
      "type": "function"
    },
    {
      "inputs": [
        {
          "internalType": "uint256",
          "name": "tokenId",
          "type": "uint256"
        }
      ],
      "name": "getApproved",
      "outputs": [
        {
          "internalType": "address",
          "name": "",
          "type": "address"
        }
      ],
      "stateMutability": "view",
      "type": "function"
    },
    {
      "inputs": [
        {
          "internalType": "address",
          "name": "owner",
          "type": "address"
        },
        {
          "internalType": "address",
          "name": "operator",
          "type": "address"
        }
      ],
      "name": "isApprovedForAll",
      "outputs": [
        {
          "internalType": "bool",
          "name": "",
          "type": "bool"
        }
      ],
      "stateMutability": "view",
      "type": "function"
    },
    {
      "inputs": [
        {
          "internalType": "address",
          "name": "_whitelistedAddress",
          "type": "address"
        },
        {
          "internalType": "bytes32[]",
          "name": "_proof",
          "type": "bytes32[]"
        },
        {
          "internalType": "uint256",
          "name": "position",
          "type": "uint256"
        }
      ],
      "name": "isWhiteListed",
      "outputs": [
        {
          "internalType": "bool",
          "name": "",
          "type": "bool"
        }
      ],
      "stateMutability": "view",
      "type": "function"
    },
    {
      "inputs": [],
      "name": "mintIndexStart",
      "outputs": [
        {
          "internalType": "uint256",
          "name": "",
          "type": "uint256"
        }
      ],
      "stateMutability": "view",
      "type": "function"
    },
    {
      "inputs": [],
      "name": "name",
      "outputs": [
        {
          "internalType": "string",
          "name": "",
          "type": "string"
        }
      ],
      "stateMutability": "view",
      "type": "function"
    },
    {
      "inputs": [],
      "name": "owner",
      "outputs": [
        {
          "internalType": "address",
          "name": "",
          "type": "address"
        }
      ],
      "stateMutability": "view",
      "type": "function"
    },
    {
      "inputs": [
        {
          "internalType": "uint256",
          "name": "tokenId",
          "type": "uint256"
        }
      ],
      "name": "ownerOf",
      "outputs": [
        {
          "internalType": "address",
          "name": "",
          "type": "address"
        }
      ],
      "stateMutability": "view",
      "type": "function"
    },
    {
      "inputs": [
        {
          "internalType": "uint256",
          "name": "n",
          "type": "uint256"
        }
      ],
      "name": "publicMint",
      "outputs": [],
      "stateMutability": "payable",
      "type": "function"
    },
    {
      "inputs": [
        {
          "internalType": "address",
          "name": "",
          "type": "address"
        }
      ],
      "name": "publicMintedAmount",
      "outputs": [
        {
          "internalType": "uint256",
          "name": "",
          "type": "uint256"
        }
      ],
      "stateMutability": "view",
      "type": "function"
    },
    {
      "inputs": [],
      "name": "renounceOwnership",
      "outputs": [],
      "stateMutability": "nonpayable",
      "type": "function"
    },
    {
      "inputs": [
        {
          "internalType": "uint256",
          "name": "tokenId",
          "type": "uint256"
        },
        {
          "internalType": "uint256",
          "name": "value",
          "type": "uint256"
        }
      ],
      "name": "royaltyInfo",
      "outputs": [
        {
          "internalType": "address",
          "name": "receiver",
          "type": "address"
        },
        {
          "internalType": "uint256",
          "name": "royaltyAmount",
          "type": "uint256"
        }
      ],
      "stateMutability": "view",
      "type": "function"
    },
    {
      "inputs": [
        {
          "internalType": "address",
          "name": "from",
          "type": "address"
        },
        {
          "internalType": "address",
          "name": "to",
          "type": "address"
        },
        {
          "internalType": "uint256",
          "name": "tokenId",
          "type": "uint256"
        }
      ],
      "name": "safeTransferFrom",
      "outputs": [],
      "stateMutability": "nonpayable",
      "type": "function"
    },
    {
      "inputs": [
        {
          "internalType": "address",
          "name": "from",
          "type": "address"
        },
        {
          "internalType": "address",
          "name": "to",
          "type": "address"
        },
        {
          "internalType": "uint256",
          "name": "tokenId",
          "type": "uint256"
        },
        {
          "internalType": "bytes",
          "name": "_data",
          "type": "bytes"
        }
      ],
      "name": "safeTransferFrom",
      "outputs": [],
      "stateMutability": "nonpayable",
      "type": "function"
    },
    {
      "inputs": [
        {
          "internalType": "address[]",
          "name": "_addr",
          "type": "address[]"
        }
      ],
      "name": "setAdmins",
      "outputs": [],
      "stateMutability": "nonpayable",
      "type": "function"
    },
    {
      "inputs": [
        {
          "internalType": "address",
          "name": "operator",
          "type": "address"
        },
        {
          "internalType": "bool",
          "name": "approved",
          "type": "bool"
        }
      ],
      "name": "setApprovalForAll",
      "outputs": [],
      "stateMutability": "nonpayable",
      "type": "function"
    },
    {
      "inputs": [
        {
          "internalType": "string",
          "name": "uri",
          "type": "string"
        }
      ],
      "name": "setBaseUri",
      "outputs": [],
      "stateMutability": "nonpayable",
      "type": "function"
    },
    {
      "inputs": [
        {
          "internalType": "address",
          "name": "_contract",
          "type": "address"
        }
      ],
      "name": "setKalaoContract",
      "outputs": [],
      "stateMutability": "nonpayable",
      "type": "function"
    },
    {
      "inputs": [
        {
          "internalType": "uint256",
          "name": "_price",
          "type": "uint256"
        }
      ],
      "name": "setPublicPrice",
      "outputs": [],
      "stateMutability": "nonpayable",
      "type": "function"
    },
    {
      "inputs": [
        {
          "internalType": "uint256",
          "name": "_START_DATE",
          "type": "uint256"
        }
      ],
      "name": "setPublicStartDate",
      "outputs": [],
      "stateMutability": "nonpayable",
      "type": "function"
    },
    {
      "inputs": [
        {
          "internalType": "uint256",
          "name": "_REVEAL_DATE",
          "type": "uint256"
        }
      ],
      "name": "setRevealDate",
      "outputs": [],
      "stateMutability": "nonpayable",
      "type": "function"
    },
    {
      "inputs": [
        {
          "internalType": "string",
          "name": "uri",
          "type": "string"
        }
      ],
      "name": "setRevealUri",
      "outputs": [],
      "stateMutability": "nonpayable",
      "type": "function"
    },
    {
      "inputs": [
        {
          "internalType": "address",
          "name": "_ROYALTY_RECIPIENT",
          "type": "address"
        }
      ],
      "name": "setRoyaltyAddress",
      "outputs": [],
      "stateMutability": "nonpayable",
      "type": "function"
    },
    {
      "inputs": [
        {
          "internalType": "bytes4",
          "name": "interfaceId",
          "type": "bytes4"
        }
      ],
      "name": "supportsInterface",
      "outputs": [
        {
          "internalType": "bool",
          "name": "",
          "type": "bool"
        }
      ],
      "stateMutability": "view",
      "type": "function"
    },
    {
      "inputs": [],
      "name": "symbol",
      "outputs": [
        {
          "internalType": "string",
          "name": "",
          "type": "string"
        }
      ],
      "stateMutability": "view",
      "type": "function"
    },
    {
      "inputs": [],
      "name": "toggleHasPublic",
      "outputs": [],
      "stateMutability": "nonpayable",
      "type": "function"
    },
    {
      "inputs": [],
      "name": "toggleHasWL",
      "outputs": [],
      "stateMutability": "nonpayable",
      "type": "function"
    },
    {
      "inputs": [],
      "name": "toggleMint",
      "outputs": [],
      "stateMutability": "nonpayable",
      "type": "function"
    },
    {
      "inputs": [
        {
          "internalType": "uint256",
          "name": "index",
          "type": "uint256"
        }
      ],
      "name": "tokenByIndex",
      "outputs": [
        {
          "internalType": "uint256",
          "name": "",
          "type": "uint256"
        }
      ],
      "stateMutability": "view",
      "type": "function"
    },
    {
      "inputs": [
        {
          "internalType": "address",
          "name": "owner",
          "type": "address"
        },
        {
          "internalType": "uint256",
          "name": "index",
          "type": "uint256"
        }
      ],
      "name": "tokenOfOwnerByIndex",
      "outputs": [
        {
          "internalType": "uint256",
          "name": "",
          "type": "uint256"
        }
      ],
      "stateMutability": "view",
      "type": "function"
    },
    {
      "inputs": [
        {
          "internalType": "uint256",
          "name": "tokenId",
          "type": "uint256"
        }
      ],
      "name": "tokenURI",
      "outputs": [
        {
          "internalType": "string",
          "name": "",
          "type": "string"
        }
      ],
      "stateMutability": "view",
      "type": "function"
    },
    {
      "inputs": [],
      "name": "totalSupply",
      "outputs": [
        {
          "internalType": "uint256",
          "name": "",
          "type": "uint256"
        }
      ],
      "stateMutability": "view",
      "type": "function"
    },
    {
      "inputs": [
        {
          "internalType": "address",
          "name": "from",
          "type": "address"
        },
        {
          "internalType": "address",
          "name": "to",
          "type": "address"
        },
        {
          "internalType": "uint256",
          "name": "tokenId",
          "type": "uint256"
        }
      ],
      "name": "transferFrom",
      "outputs": [],
      "stateMutability": "nonpayable",
      "type": "function"
    },
    {
      "inputs": [
        {
          "internalType": "address",
          "name": "newOwner",
          "type": "address"
        }
      ],
      "name": "transferOwnership",
      "outputs": [],
      "stateMutability": "nonpayable",
      "type": "function"
    },
    {
      "inputs": [
        {
          "internalType": "uint256",
          "name": "_WL_START_DATE",
          "type": "uint256"
        },
        {
          "internalType": "uint256",
          "name": "_WL_END_DATE",
          "type": "uint256"
        },
        {
          "internalType": "uint256",
          "name": "_MAX_WL_CLAIM",
          "type": "uint256"
        },
        {
          "internalType": "uint256",
          "name": "_WL_PRICE",
          "type": "uint256"
        },
        {
          "internalType": "bytes32",
          "name": "_MERKLE_ROOT",
          "type": "bytes32"
        },
        {
          "internalType": "uint256",
          "name": "position",
          "type": "uint256"
        }
      ],
      "name": "updateWhiteList",
      "outputs": [],
      "stateMutability": "nonpayable",
      "type": "function"
    },
    {
      "inputs": [
        {
          "internalType": "uint256",
          "name": "n",
          "type": "uint256"
        },
        {
          "internalType": "bytes32[]",
          "name": "_proof",
          "type": "bytes32[]"
        },
        {
          "internalType": "uint256",
          "name": "position",
          "type": "uint256"
        }
      ],
      "name": "whiteListMint",
      "outputs": [],
      "stateMutability": "payable",
      "type": "function"
    },
    {
      "inputs": [
        {
          "internalType": "uint256",
          "name": "",
          "type": "uint256"
        },
        {
          "internalType": "address",
          "name": "",
          "type": "address"
        }
      ],
      "name": "whiteListMintAddresses",
      "outputs": [
        {
          "internalType": "uint256",
          "name": "",
          "type": "uint256"
        }
      ],
      "stateMutability": "view",
      "type": "function"
    },
    {
      "inputs": [
        {
          "internalType": "address",
          "name": "_whitelistedAddress",
          "type": "address"
        },
        {
          "internalType": "uint256",
          "name": "position",
          "type": "uint256"
        }
      ],
      "name": "whiteListMintedCount",
      "outputs": [
        {
          "internalType": "uint256",
          "name": "",
          "type": "uint256"
        }
      ],
      "stateMutability": "view",
      "type": "function"
    },
    {
      "inputs": [
        {
          "internalType": "uint256",
          "name": "",
          "type": "uint256"
        }
      ],
      "name": "whitelists",
      "outputs": [
        {
          "internalType": "uint256",
          "name": "WL_START_DATE",
          "type": "uint256"
        },
        {
          "internalType": "uint256",
          "name": "WL_END_DATE",
          "type": "uint256"
        },
        {
          "internalType": "uint256",
          "name": "MAX_WL_CLAIM",
          "type": "uint256"
        },
        {
          "internalType": "uint256",
          "name": "WL_PRICE",
          "type": "uint256"
        },
        {
          "internalType": "bytes32",
          "name": "MERKLE_ROOT",
          "type": "bytes32"
        }
      ],
      "stateMutability": "view",
      "type": "function"
    },
    {
      "inputs": [],
      "name": "withdraw",
      "outputs": [],
      "stateMutability": "nonpayable",
      "type": "function"
    },
    {
      "stateMutability": "payable",
      "type": "receive"
    }
  ],
  "bytecode": "0x6000600c81905560c0604081905260a08290526200002191600e9190620001a1565b506040805160208101918290526000908190526200004291600f91620001a1565b506010805461ffff191661010117905560016013553480156200006457600080fd5b50604051620044c1380380620044c183398101604081905262000087916200031b565b868b8b8160009080519060200190620000a2929190620001a1565b508051620000b8906001906020840190620001a1565b505050620000d5620000cf6200014b60201b60201c565b6200014f565b60805260128790558851620000f290600e9060208c0190620001a1565b5087516200010890600f9060208b0190620001a1565b50601491909155601580546001600160a01b0319166001600160a01b039690961695909517909455601692909255601855601955601755506200048d9350505050565b3390565b600a80546001600160a01b038381166001600160a01b0319831681179093556040519116919082907f8be0079c531659141344cd1fd0a4f28419497f9722a3daafe3b4186f6b6457e090600090a35050565b828054620001af906200043a565b90600052602060002090601f016020900481019282620001d357600085556200021e565b82601f10620001ee57805160ff19168380011785556200021e565b828001600101855582156200021e579182015b828111156200021e57825182559160200191906001019062000201565b506200022c92915062000230565b5090565b5b808211156200022c576000815560010162000231565b80516001600160a01b03811681146200025f57600080fd5b919050565b600082601f8301126200027657600080fd5b81516001600160401b038082111562000293576200029362000477565b604051601f8301601f19908116603f01168101908282118183101715620002be57620002be62000477565b81604052838152602092508683858801011115620002db57600080fd5b600091505b83821015620002ff5785820183015181830184015290820190620002e0565b83821115620003115760008385830101525b9695505050505050565b60008060008060008060008060008060006101608c8e0312156200033e57600080fd5b8b516001600160401b038111156200035557600080fd5b620003638e828f0162000264565b60208e0151909c5090506001600160401b038111156200038257600080fd5b620003908e828f0162000264565b60408e0151909b5090506001600160401b03811115620003af57600080fd5b620003bd8e828f0162000264565b60608e0151909a5090506001600160401b03811115620003dc57600080fd5b620003ea8e828f0162000264565b98505060808c015196506200040260a08d0162000247565b955060c08c0151945060e08c015193506101008c015192506101208c015191506101408c015190509295989b509295989b9093969950565b600181811c908216806200044f57607f821691505b602082108114156200047157634e487b7160e01b600052602260045260246000fd5b50919050565b634e487b7160e01b600052604160045260246000fd5b608051614018620004a9600039600061285b01526140186000f3fe60806040526004361061033f5760003560e01c80636a455a97116101ae578063b88d4fde116100eb578063e985e9c51161008f578063f2fde38b1161006c578063f2fde38b146109dd578063fc7d57c3146109fd578063fe4d5add14610a13578063ff47f71c14610a5b57005b8063e985e9c514610947578063ead29d4e14610990578063ebd6d0d3146109bd57005b8063cf66e6fe116100c8578063cf66e6fe146108dd578063d3dd5fe0146108fd578063d99dc83e14610912578063dbddb26a1461093257005b8063b88d4fde1461087d578063c62752551461089d578063c87b56dd146108bd57005b806393791b0311610152578063a22cb4651161012f578063a22cb465146107fd578063a37da3601461081d578063a5dabf711461083d578063accc1d5e1461085d57005b806393791b03146107b257806395d89b41146107c8578063a0bcfc7f146107dd57005b806378f8d91a1161018b57806378f8d91a1461073e5780637ff328601461075d5780638a3662ec146107735780638da5cb5b1461079457005b80636a455a97146106f657806370a0823114610709578063715018a61461072957005b80632db115441161027c57806342842e0e116102205780635471f49f116101fd5780635471f49f1461068b57806357a8750d146106a0578063611f3f10146106c05780636352211e146106d657005b806342842e0e1461062b57806342b58b2f1461064b5780634f6ccce71461066b57005b80633ccfd60b116102595780633ccfd60b146105865780633f879faf1461059b57806340cf442c146105b157806341826ee8146105f357005b80632db11544146105335780632f745c59146105465780633a97faf41461056657005b80630dc28efe116102e357806318f3707a116102c057806318f3707a146104a55780632072cab4146104ba57806323b872dd146104d45780632a55205a146104f457005b80630dc28efe1461044c57806315147aee1461046c57806318160ddd1461049057005b8063081812fc1161031c578063081812fc146103bf57806308818bb8146103f7578063095ea7b31461040c5780630c88b7311461042c57005b806301ffc9a71461034857806306d254da1461037d57806306fdde031461039d57005b3661034657005b005b34801561035457600080fd5b50610368610363366004613c01565b610a7b565b60405190151581526020015b60405180910390f35b34801561038957600080fd5b506103466103983660046139f9565b610a8c565b3480156103a957600080fd5b506103b2610ab6565b6040516103749190613e53565b3480156103cb57600080fd5b506103df6103da366004613c84565b610b48565b6040516001600160a01b039091168152602001610374565b34801561040357600080fd5b50610346610b6f565b34801561041857600080fd5b50610346610427366004613b95565b610b94565b34801561043857600080fd5b50610346610447366004613c84565b610ccb565b34801561045857600080fd5b50610346610467366004613c9d565b610cd8565b34801561047857600080fd5b5061048260175481565b604051908152602001610374565b34801561049c57600080fd5b50600854610482565b3480156104b157600080fd5b50610346610e97565b3480156104c657600080fd5b506010546103689060ff1681565b3480156104e057600080fd5b506103466104ef366004613a47565b610ebe565b34801561050057600080fd5b5061051461050f366004613cf4565b610f45565b604080516001600160a01b039093168352602083019190915201610374565b610346610541366004613c84565b610fa3565b34801561055257600080fd5b50610482610561366004613b95565b6114ad565b34801561057257600080fd5b50610346610581366004613c84565b611555565b34801561059257600080fd5b50610346611562565b3480156105a757600080fd5b5061048260125481565b3480156105bd57600080fd5b506104826105cc366004613b95565b6000908152601d602090815260408083206001600160a01b03949094168352929052205490565b3480156105ff57600080fd5b5061048261060e366004613c9d565b601d60209081526000928352604080842090915290825290205481565b34801561063757600080fd5b50610346610646366004613a47565b611645565b34801561065757600080fd5b50610346610666366004613c3b565b611660565b34801561067757600080fd5b50610482610686366004613c84565b61167f565b34801561069757600080fd5b50610482600a81565b3480156106ac57600080fd5b506103686106bb366004613aff565b611723565b3480156106cc57600080fd5b5061048260195481565b3480156106e257600080fd5b506103df6106f1366004613c84565b6117cf565b610346610704366004613cc0565b611834565b34801561071557600080fd5b506104826107243660046139f9565b611f3b565b34801561073557600080fd5b50610346611fd5565b34801561074a57600080fd5b5060105461036890610100900460ff1681565b34801561076957600080fd5b5061048260185481565b34801561077f57600080fd5b50601054610368906301000000900460ff1681565b3480156107a057600080fd5b50600a546001600160a01b03166103df565b3480156107be57600080fd5b5061048260165481565b3480156107d457600080fd5b506103b2611fe9565b3480156107e957600080fd5b506103466107f8366004613c3b565b611ff8565b34801561080957600080fd5b50610346610818366004613b59565b612013565b34801561082957600080fd5b50610346610838366004613c9d565b61201e565b34801561084957600080fd5b50610346610858366004613d51565b612186565b34801561086957600080fd5b50610346610878366004613bbf565b612219565b34801561088957600080fd5b50610346610898366004613a83565b612293565b3480156108a957600080fd5b506103466108b8366004613c84565b612321565b3480156108c957600080fd5b506103b26108d8366004613c84565b61232e565b3480156108e957600080fd5b50601a546103df906001600160a01b031681565b34801561090957600080fd5b50610346612417565b34801561091e57600080fd5b5061034661092d3660046139f9565b612433565b34801561093e57600080fd5b506103b261245d565b34801561095357600080fd5b50610368610962366004613a14565b6001600160a01b03918216600090815260056020908152604080832093909416825291909152205460ff1690565b34801561099c57600080fd5b506104826109ab3660046139f9565b601b6020526000908152604090205481565b3480156109c957600080fd5b506103466109d8366004613d16565b6124eb565b3480156109e957600080fd5b506103466109f83660046139f9565b61261b565b348015610a0957600080fd5b5061048260135481565b348015610a1f57600080fd5b50610a33610a2e366004613c84565b6126a8565b604080519586526020860194909452928401919091526060830152608082015260a001610374565b348015610a6757600080fd5b506010546103689062010000900460ff1681565b6000610a86826126e9565b92915050565b610a94612727565b601580546001600160a01b0319166001600160a01b0392909216919091179055565b606060008054610ac590613ef4565b80601f0160208091040260200160405190810160405280929190818152602001828054610af190613ef4565b8015610b3e5780601f10610b1357610100808354040283529160200191610b3e565b820191906000526020600020905b815481529060010190602001808311610b2157829003601f168201915b5050505050905090565b6000610b5382612781565b506000908152600460205260409020546001600160a01b031690565b610b77612727565b6010805461ff001981166101009182900460ff1615909102179055565b6000610b9f826117cf565b9050806001600160a01b0316836001600160a01b03161415610c2e5760405162461bcd60e51b815260206004820152602160248201527f4552433732313a20617070726f76616c20746f2063757272656e74206f776e6560448201527f720000000000000000000000000000000000000000000000000000000000000060648201526084015b60405180910390fd5b336001600160a01b0382161480610c4a5750610c4a8133610962565b610cbc5760405162461bcd60e51b815260206004820152603d60248201527f4552433732313a20617070726f76652063616c6c6572206973206e6f7420746f60448201527f6b656e206f776e6572206f7220617070726f76656420666f7220616c6c0000006064820152608401610c25565b610cc683836127e5565b505050565b610cd3612727565b601455565b610ce0612727565b60008211610d305760405162461bcd60e51b815260206004820152601f60248201527f4e756d626572206e65656420746f20626520686967686572207468616e2030006044820152606401610c25565b600a821115610d8c5760405162461bcd60e51b815260206004820152602260248201527f796f752063616e277420636c61696d2074686174206d756368206174206f756e604482015261636560f01b6064820152608401610c25565b6010546301000000900460ff1615610e0c5760405162461bcd60e51b815260206004820152603860248201527f63616e2774206d696e7420696e206f726465722c20746f6b656e73206861766560448201527f20616c7265616479206265656e2072616e646f6d697a656400000000000000006064820152608401610c25565b60005b82811015610cc6576000601354610e266000612853565b610e309190613e66565b9050610e3c838261296b565b601554601654610e599183916001600160a01b0390911690612985565b60405181907f655433208e80147d2cbbe0379ba1144b0b1151a26584f5c34f59a1d7aa721ddc90600090a25080610e8f81613f2f565b915050610e0f565b610e9f612727565b6010805462ff0000198116620100009182900460ff1615909102179055565b610ec83382612a46565b610f3a5760405162461bcd60e51b815260206004820152603160248201527f4552433732313a207472616e736665722063616c6c6572206973206e6f74206f60448201527f776e6572206e6f7220617070726f7665640000000000000000000000000000006064820152608401610c25565b610cc6838383612ac4565b6000828152600b602090815260408083208151808301909252546001600160a01b038116808352600160a01b90910462ffffff16928201839052929161271090610f8f9086613e92565b610f999190613e7e565b9150509250929050565b601054610100900460ff166110205760405162461bcd60e51b815260206004820152602760248201527f4e6f207075626c69632073616c652061737369676e656420746f20746869732060448201527f70726f6a656374000000000000000000000000000000000000000000000000006064820152608401610c25565b60105460ff1661107e5760405162461bcd60e51b815260206004820152602360248201527f49742773206e6f7420706f737369626c6520746f20636c61696d206a757374206044820152621e595d60ea1b6064820152608401610c25565b6018544210156110d05760405162461bcd60e51b815260206004820152600f60248201527f4e6f7420737461727465642079657400000000000000000000000000000000006044820152606401610c25565b600081116111205760405162461bcd60e51b815260206004820152601f60248201527f4e756d626572206e65656420746f20626520686967686572207468616e2030006044820152606401610c25565b6012546008546111309083613e66565b111561117e5760405162461bcd60e51b815260206004820152601760248201527f4e6f7420656e6f756768206c65667420746f206d696e740000000000000000006044820152606401610c25565b600a8111156111d95760405162461bcd60e51b815260206004820152602160248201527f796f752063616e277420636c61696d2074686174206d756368206174206f6e636044820152606560f81b6064820152608401610c25565b806019546111e79190613e92565b3410156112425760405162461bcd60e51b815260206004820152602360248201527f45746865722076616c75652073656e742069732062656c6f772074686520707260448201526269636560e81b6064820152608401610c25565b6017541561136057601754336000908152601b6020526040902054106112d05760405162461bcd60e51b815260206004820152602760248201527f616d6f756e74206578636565647320746865207075626c6963206d696e74696e60448201527f67206c696d6974000000000000000000000000000000000000000000000000006064820152608401610c25565b601754336000908152601b60205260409020546112ed9083613e66565b111561133b5760405162461bcd60e51b815260206004820152601960248201527f796f752063616e277420636c61696d2074686174206d756368000000000000006044820152606401610c25565b336000908152601b60205260408120805483929061135a908490613e66565b90915550505b6000816019546113709190613e92565b9050600061137e8234613eb1565b604051909150309083156108fc029084906000818181858888f193505050501580156113ae573d6000803e3d6000fd5b5060005b8381101561143b5760006013546113c96001612853565b6113d39190613e66565b90506113e0335b8261296b565b6015546016546113fd9183916001600160a01b0390911690612985565b60405181907f655433208e80147d2cbbe0379ba1144b0b1151a26584f5c34f59a1d7aa721ddc90600090a2508061143381613f2f565b9150506113b2565b506010546301000000900460ff16611461576010805463ff000000191663010000001790555b801561149657604051339082156108fc029083906000818181858888f19350505050158015611494573d6000803e3d6000fd5b505b601a54610cc6906001600160a01b03166001612013565b60006114b883611f3b565b821061152c5760405162461bcd60e51b815260206004820152602b60248201527f455243373231456e756d657261626c653a206f776e657220696e646578206f7560448201527f74206f6620626f756e64730000000000000000000000000000000000000000006064820152608401610c25565b506001600160a01b03919091166000908152600660209081526040808320938352929052205490565b61155d612727565b601855565b336000908152601c602052604090205460ff1615156001146115c65760405162461bcd60e51b815260206004820152601260248201527f596f757220617265206e6f742061646d696e00000000000000000000000000006044820152606401610c25565b600047116116165760405162461bcd60e51b815260206004820152601360248201527f4e6f7468696e6720746f207769746864726177000000000000000000000000006044820152606401610c25565b60405133904780156108fc02916000818181858888f19350505050158015611642573d6000803e3d6000fd5b50565b610cc683838360405180602001604052806000815250612293565b611668612727565b805161167b90600f906020840190613882565b5050565b600061168a60085490565b82106116fe5760405162461bcd60e51b815260206004820152602c60248201527f455243373231456e756d657261626c653a20676c6f62616c20696e646578206f60448201527f7574206f6620626f756e647300000000000000000000000000000000000000006064820152608401610c25565b6008828154811061171157611711613fa0565b90600052602060002001549050919050565b6040516bffffffffffffffffffffffff19606086901b16602082015260009081906034016040516020818303038152906040528051906020012090506117c3858580806020026020016040519081016040528093929190818152602001838360200280828437600092019190915250506011805490925087915081106117ab576117ab613fa0565b90600052602060002090600502016004015483612cca565b9150505b949350505050565b6000818152600260205260408120546001600160a01b031680610a865760405162461bcd60e51b815260206004820152601860248201527f4552433732313a20696e76616c696420746f6b656e20494400000000000000006044820152606401610c25565b60105462010000900460ff166118b25760405162461bcd60e51b815260206004820152602560248201527f4e6f2077686974656c6973742061737369676e656420746f207468697320707260448201527f6f6a6563740000000000000000000000000000000000000000000000000000006064820152608401610c25565b60105460ff166119105760405162461bcd60e51b815260206004820152602360248201527f49742773206e6f7420706f737369626c6520746f20636c61696d206a757374206044820152621e595d60ea1b6064820152608401610c25565b6011818154811061192357611923613fa0565b9060005260206000209060050201600001544210156119845760405162461bcd60e51b815260206004820152600f60248201527f4e6f7420737461727465642079657400000000000000000000000000000000006044820152606401610c25565b6011818154811061199757611997613fa0565b90600052602060002090600502016001015442106119f75760405162461bcd60e51b815260206004820152601960248201527f57686974656c6973742073616c65732068617320656e646564000000000000006044820152606401610c25565b60008411611a475760405162461bcd60e51b815260206004820152601f60248201527f4e756d626572206e65656420746f20626520686967686572207468616e2030006044820152606401610c25565b601254600854611a579086613e66565b1115611aa55760405162461bcd60e51b815260206004820152601760248201527f4e6f7420656e6f756768206c65667420746f206d696e740000000000000000006044820152606401610c25565b600a841115611b005760405162461bcd60e51b815260206004820152602160248201527f796f752063616e277420636c61696d2074686174206d756368206174206f6e636044820152606560f81b6064820152608401610c25565b6040516bffffffffffffffffffffffff193360601b166020820152600090603401604051602081830303815290604052805190602001209050611b85848480806020026020016040519081016040528093929190818152602001838360200280828437600092019190915250506011805490925086915081106117ab576117ab613fa0565b611bd15760405162461bcd60e51b815260206004820152601460248201527f496e76616c6964204d65726b6c652050726f6f660000000000000000000000006044820152606401610c25565b8460118381548110611be557611be5613fa0565b906000526020600020906005020160030154611c019190613e92565b341015611c5c5760405162461bcd60e51b815260206004820152602360248201527f45746865722076616c75652073656e742069732062656c6f772074686520707260448201526269636560e81b6064820152608401610c25565b600060118381548110611c7157611c71613fa0565b9060005260206000209060050201600201541115611ddc5760118281548110611c9c57611c9c613fa0565b6000918252602080832060026005909302019190910154848352601d825260408084203385529092529120541115611d165760405162461bcd60e51b815260206004820152601760248201527f596f752063616e277420636c61696d20616e796d6f72650000000000000000006044820152606401610c25565b60118281548110611d2957611d29613fa0565b6000918252602080832060026005909302019190910154848352601d82526040808420338552909252912054611d5f9087613e66565b1115611dad5760405162461bcd60e51b815260206004820152601960248201527f796f752063616e277420636c61696d2074686174206d756368000000000000006044820152606401610c25565b6000828152601d6020908152604080832033845290915281208054879290611dd6908490613e66565b90915550505b60008560118481548110611df257611df2613fa0565b906000526020600020906005020160030154611e0e9190613e92565b90506000611e1c8234613eb1565b604051909150309083156108fc029084906000818181858888f19350505050158015611e4c573d6000803e3d6000fd5b5060005b87811015611ed7576000601354611e676001612853565b611e719190613e66565b9050611e7c336113da565b601554601654611e999183916001600160a01b0390911690612985565b60405181907ffb14f9383373395d1cc1bb2516360e8f57e8e150cc6d4df02b1fc5ab319e865390600090a25080611ecf81613f2f565b915050611e50565b506010546301000000900460ff16611efd576010805463ff000000191663010000001790555b8015611f3257604051339082156108fc029083906000818181858888f19350505050158015611f30573d6000803e3d6000fd5b505b50505050505050565b60006001600160a01b038216611fb95760405162461bcd60e51b815260206004820152602960248201527f4552433732313a2061646472657373207a65726f206973206e6f74206120766160448201527f6c6964206f776e657200000000000000000000000000000000000000000000006064820152608401610c25565b506001600160a01b031660009081526003602052604090205490565b611fdd612727565b611fe76000612ce0565b565b606060018054610ac590613ef4565b612000612727565b805161167b90600e906020840190613882565b61167b338383612d32565b612026612727565b600082116120765760405162461bcd60e51b815260206004820152601f60248201527f4e756d626572206e65656420746f20626520686967686572207468616e2030006044820152606401610c25565b600a8211156120d25760405162461bcd60e51b815260206004820152602260248201527f796f752063616e277420636c61696d2074686174206d756368206174206f756e604482015261636560f01b6064820152608401610c25565b60005b8281101561215d5760006013546120ec6001612853565b6120f69190613e66565b9050612102838261296b565b60155460165461211f9183916001600160a01b0390911690612985565b60405181907f655433208e80147d2cbbe0379ba1144b0b1151a26584f5c34f59a1d7aa721ddc90600090a2508061215581613f2f565b9150506120d5565b506010546301000000900460ff1661167b576010805463ff000000191663010000001790555050565b61218e612727565b60006040518060a0016040528088815260200187815260200186815260200185815260200184815250905080601183815481106121cd576121cd613fa0565b9060005260206000209060050201600082015181600001556020820151816001015560408201518160020155606082015181600301556080820151816004015590505050505050505050565b612221612727565b60005b81811015610cc6576001601c600085858581811061224457612244613fa0565b905060200201602081019061225991906139f9565b6001600160a01b031681526020810191909152604001600020805460ff19169115159190911790558061228b81613f2f565b915050612224565b61229d3383612a46565b61230f5760405162461bcd60e51b815260206004820152603160248201527f4552433732313a207472616e736665722063616c6c6572206973206e6f74206f60448201527f776e6572206e6f7220617070726f7665640000000000000000000000000000006064820152608401610c25565b61231b84848484612e01565b50505050565b612329612727565b601955565b6000818152600260205260409020546060906001600160a01b03166123bb5760405162461bcd60e51b815260206004820152602f60248201527f4552433732314d657461646174613a2055524920717565727920666f72206e6f60448201527f6e6578697374656e7420746f6b656e00000000000000000000000000000000006064820152608401610c25565b60006123c5612e7f565b905060008151116123e55760405180602001604052806000815250612410565b806123ef84612ea4565b604051602001612400929190613dc0565b6040516020818303038152906040525b9392505050565b61241f612727565b6010805460ff19811660ff90911615179055565b61243b612727565b601a80546001600160a01b0319166001600160a01b0392909216919091179055565b600e805461246a90613ef4565b80601f016020809104026020016040519081016040528092919081815260200182805461249690613ef4565b80156124e35780601f106124b8576101008083540402835291602001916124e3565b820191906000526020600020905b8154815290600101906020018083116124c657829003601f168201915b505050505081565b6124f3612727565b6040805160a0810182528681526020810186815291810185815260608201858152608083018581526011805460018101825560009190915284517f31ecc21a745e3968a04e9570e4425bc18fa8019c68028196b546d1669c200c6860059092029182015594517f31ecc21a745e3968a04e9570e4425bc18fa8019c68028196b546d1669c200c6986015591517f31ecc21a745e3968a04e9570e4425bc18fa8019c68028196b546d1669c200c6a850155517f31ecc21a745e3968a04e9570e4425bc18fa8019c68028196b546d1669c200c6b840155517f31ecc21a745e3968a04e9570e4425bc18fa8019c68028196b546d1669c200c6c9092019190915560105462010000900460ff16612613576010805462ff00001916620100001790555b505050505050565b612623612727565b6001600160a01b03811661269f5760405162461bcd60e51b815260206004820152602660248201527f4f776e61626c653a206e6577206f776e657220697320746865207a65726f206160448201527f64647265737300000000000000000000000000000000000000000000000000006064820152608401610c25565b61164281612ce0565b601181815481106126b857600080fd5b6000918252602090912060059091020180546001820154600283015460038401546004909401549294509092909185565b60006001600160e01b031982167f2a55205a000000000000000000000000000000000000000000000000000000001480610a865750610a8682612f4e565b600a546001600160a01b03163314611fe75760405162461bcd60e51b815260206004820181905260248201527f4f776e61626c653a2063616c6c6572206973206e6f7420746865206f776e65726044820152606401610c25565b6000818152600260205260409020546001600160a01b03166116425760405162461bcd60e51b815260206004820152601860248201527f4552433732313a20696e76616c696420746f6b656e20494400000000000000006044820152606401610c25565b600081815260046020526040902080546001600160a01b0319166001600160a01b038416908117909155819061281a826117cf565b6001600160a01b03167f8c5be1e5ebec7d5bd14f71427d1e84f3dd0314c0f7b2291e5b200ac8c7c3b92560405160405180910390a45050565b600080600c547f00000000000000000000000000000000000000000000000000000000000000006128849190613eb1565b9050600080600085156128ab578361289a612f8c565b6128a49190613f4a565b90506128b0565b50600c545b600d60006128bf600187613eb1565b815260200190815260200160002054600014156128e8576128e1600185613eb1565b9250612909565b600d60006128f7600187613eb1565b81526020019081526020016000205492505b6000818152600d6020526040902054612935576000818152600d6020526040902083905590508061294c565b6000818152600d6020526040902080549084905591505b600c805490600061295c83613f2f565b90915550919695505050505050565b61167b828260405180602001604052806000815250612fc8565b6127108111156129d75760405162461bcd60e51b815260206004820152601a60248201527f45524332393831526f79616c746965733a20546f6f20686967680000000000006044820152606401610c25565b6040805180820182526001600160a01b03938416815262ffffff92831660208083019182526000968752600b905291909420935184549151909216600160a01b027fffffffffffffffffff00000000000000000000000000000000000000000000009091169190921617179055565b600080612a52836117cf565b9050806001600160a01b0316846001600160a01b03161480612a9957506001600160a01b0380821660009081526005602090815260408083209388168352929052205460ff165b806117c75750836001600160a01b0316612ab284610b48565b6001600160a01b031614949350505050565b826001600160a01b0316612ad7826117cf565b6001600160a01b031614612b3b5760405162461bcd60e51b815260206004820152602560248201527f4552433732313a207472616e736665722066726f6d20696e636f72726563742060448201526437bbb732b960d91b6064820152608401610c25565b6001600160a01b038216612bb65760405162461bcd60e51b8152602060048201526024808201527f4552433732313a207472616e7366657220746f20746865207a65726f2061646460448201527f72657373000000000000000000000000000000000000000000000000000000006064820152608401610c25565b612bc38383836001613046565b826001600160a01b0316612bd6826117cf565b6001600160a01b031614612c3a5760405162461bcd60e51b815260206004820152602560248201527f4552433732313a207472616e736665722066726f6d20696e636f72726563742060448201526437bbb732b960d91b6064820152608401610c25565b600081815260046020908152604080832080546001600160a01b03199081169091556001600160a01b0387811680865260038552838620805460001901905590871680865283862080546001019055868652600290945282852080549092168417909155905184937fddf252ad1be2c89b69c2b068fc378daa952ba7f163c4a11628f55a4df523b3ef91a4505050565b600082612cd7858461318e565b14949350505050565b600a80546001600160a01b038381166001600160a01b0319831681179093556040519116919082907f8be0079c531659141344cd1fd0a4f28419497f9722a3daafe3b4186f6b6457e090600090a35050565b816001600160a01b0316836001600160a01b03161415612d945760405162461bcd60e51b815260206004820152601960248201527f4552433732313a20617070726f766520746f2063616c6c6572000000000000006044820152606401610c25565b6001600160a01b03838116600081815260056020908152604080832094871680845294825291829020805460ff191686151590811790915591519182527f17307eab39ab6107e8899845ad3d59bd9653f200f220920489ca2b5937696c31910160405180910390a3505050565b612e0c848484612ac4565b612e18848484846131d3565b61231b5760405162461bcd60e51b815260206004820152603260248201527f4552433732313a207472616e7366657220746f206e6f6e20455243373231526560448201527131b2b4bb32b91034b6b83632b6b2b73a32b960711b6064820152608401610c25565b60606014544210612e9757600f8054610ac590613ef4565b600e8054610ac590613ef4565b60606000612eb183613328565b600101905060008167ffffffffffffffff811115612ed157612ed1613fb6565b6040519080825280601f01601f191660200182016040528015612efb576020820181803683370190505b5090508181016020015b600019017f3031323334353637383961626364656600000000000000000000000000000000600a86061a8153600a8504945084612f4157612f46565b612f05565b509392505050565b60006001600160e01b031982167f780e9d63000000000000000000000000000000000000000000000000000000001480610a865750610a868261340a565b60004442604051602001612faa929190918252602082015260400190565b6040516020818303038152906040528051906020012060001c905090565b612fd283836134a5565b612fdf60008484846131d3565b610cc65760405162461bcd60e51b815260206004820152603260248201527f4552433732313a207472616e7366657220746f206e6f6e20455243373231526560448201527131b2b4bb32b91034b6b83632b6b2b73a32b960711b6064820152608401610c25565b6130528484848461363e565b60018111156130c95760405162461bcd60e51b815260206004820152603560248201527f455243373231456e756d657261626c653a20636f6e736563757469766520747260448201527f616e7366657273206e6f7420737570706f7274656400000000000000000000006064820152608401610c25565b816001600160a01b0385166131255761312081600880546000838152600960205260408120829055600182018355919091527ff3f7a9fe364faab93b216da50a3214154f22a0a2b415b23a84c8169e8b636ee30155565b613148565b836001600160a01b0316856001600160a01b0316146131485761314885826136c6565b6001600160a01b0384166131645761315f81613763565b613187565b846001600160a01b0316846001600160a01b031614613187576131878482613812565b5050505050565b600081815b8451811015612f46576131bf828683815181106131b2576131b2613fa0565b6020026020010151613856565b9150806131cb81613f2f565b915050613193565b60006001600160a01b0384163b1561332057604051630a85bd0160e11b81526001600160a01b0385169063150b7a0290613217903390899088908890600401613e17565b602060405180830381600087803b15801561323157600080fd5b505af1925050508015613261575060408051601f3d908101601f1916820190925261325e91810190613c1e565b60015b613306573d80801561328f576040519150601f19603f3d011682016040523d82523d6000602084013e613294565b606091505b5080516132fe5760405162461bcd60e51b815260206004820152603260248201527f4552433732313a207472616e7366657220746f206e6f6e20455243373231526560448201527131b2b4bb32b91034b6b83632b6b2b73a32b960711b6064820152608401610c25565b805181602001fd5b6001600160e01b031916630a85bd0160e11b1490506117c7565b5060016117c7565b6000807a184f03e93ff9f4daa797ed6e38ed64bf6a1f0100000000000000008310613371577a184f03e93ff9f4daa797ed6e38ed64bf6a1f010000000000000000830492506040015b6d04ee2d6d415b85acef8100000000831061339d576d04ee2d6d415b85acef8100000000830492506020015b662386f26fc1000083106133bb57662386f26fc10000830492506010015b6305f5e10083106133d3576305f5e100830492506008015b61271083106133e757612710830492506004015b606483106133f9576064830492506002015b600a8310610a865760010192915050565b60006001600160e01b031982167f80ac58cd00000000000000000000000000000000000000000000000000000000148061346d57506001600160e01b031982167f5b5e139f00000000000000000000000000000000000000000000000000000000145b80610a8657507f01ffc9a7000000000000000000000000000000000000000000000000000000006001600160e01b0319831614610a86565b6001600160a01b0382166134fb5760405162461bcd60e51b815260206004820181905260248201527f4552433732313a206d696e7420746f20746865207a65726f20616464726573736044820152606401610c25565b6000818152600260205260409020546001600160a01b0316156135605760405162461bcd60e51b815260206004820152601c60248201527f4552433732313a20746f6b656e20616c7265616479206d696e746564000000006044820152606401610c25565b61356e600083836001613046565b6000818152600260205260409020546001600160a01b0316156135d35760405162461bcd60e51b815260206004820152601c60248201527f4552433732313a20746f6b656e20616c7265616479206d696e746564000000006044820152606401610c25565b6001600160a01b038216600081815260036020908152604080832080546001019055848352600290915280822080546001600160a01b0319168417905551839291907fddf252ad1be2c89b69c2b068fc378daa952ba7f163c4a11628f55a4df523b3ef908290a45050565b600181111561231b576001600160a01b03841615613684576001600160a01b0384166000908152600360205260408120805483929061367e908490613eb1565b90915550505b6001600160a01b0383161561231b576001600160a01b038316600090815260036020526040812080548392906136bb908490613e66565b909155505050505050565b600060016136d384611f3b565b6136dd9190613eb1565b600083815260076020526040902054909150808214613730576001600160a01b03841660009081526006602090815260408083208584528252808320548484528184208190558352600790915290208190555b5060009182526007602090815260408084208490556001600160a01b039094168352600681528383209183525290812055565b60085460009061377590600190613eb1565b6000838152600960205260408120546008805493945090928490811061379d5761379d613fa0565b9060005260206000200154905080600883815481106137be576137be613fa0565b60009182526020808320909101929092558281526009909152604080822084905585825281205560088054806137f6576137f6613f8a565b6001900381819060005260206000200160009055905550505050565b600061381d83611f3b565b6001600160a01b039093166000908152600660209081526040808320868452825280832085905593825260079052919091209190915550565b6000818310613872576000828152602084905260409020612410565b5060009182526020526040902090565b82805461388e90613ef4565b90600052602060002090601f0160209004810192826138b057600085556138f6565b82601f106138c957805160ff19168380011785556138f6565b828001600101855582156138f6579182015b828111156138f65782518255916020019190600101906138db565b50613902929150613906565b5090565b5b808211156139025760008155600101613907565b600067ffffffffffffffff8084111561393657613936613fb6565b604051601f8501601f19908116603f0116810190828211818310171561395e5761395e613fb6565b8160405280935085815286868601111561397757600080fd5b858560208301376000602087830101525050509392505050565b80356001600160a01b03811681146139a857600080fd5b919050565b60008083601f8401126139bf57600080fd5b50813567ffffffffffffffff8111156139d757600080fd5b6020830191508360208260051b85010111156139f257600080fd5b9250929050565b600060208284031215613a0b57600080fd5b61241082613991565b60008060408385031215613a2757600080fd5b613a3083613991565b9150613a3e60208401613991565b90509250929050565b600080600060608486031215613a5c57600080fd5b613a6584613991565b9250613a7360208501613991565b9150604084013590509250925092565b60008060008060808587031215613a9957600080fd5b613aa285613991565b9350613ab060208601613991565b925060408501359150606085013567ffffffffffffffff811115613ad357600080fd5b8501601f81018713613ae457600080fd5b613af38782356020840161391b565b91505092959194509250565b60008060008060608587031215613b1557600080fd5b613b1e85613991565b9350602085013567ffffffffffffffff811115613b3a57600080fd5b613b46878288016139ad565b9598909750949560400135949350505050565b60008060408385031215613b6c57600080fd5b613b7583613991565b915060208301358015158114613b8a57600080fd5b809150509250929050565b60008060408385031215613ba857600080fd5b613bb183613991565b946020939093013593505050565b60008060208385031215613bd257600080fd5b823567ffffffffffffffff811115613be957600080fd5b613bf5858286016139ad565b90969095509350505050565b600060208284031215613c1357600080fd5b813561241081613fcc565b600060208284031215613c3057600080fd5b815161241081613fcc565b600060208284031215613c4d57600080fd5b813567ffffffffffffffff811115613c6457600080fd5b8201601f81018413613c7557600080fd5b6117c78482356020840161391b565b600060208284031215613c9657600080fd5b5035919050565b60008060408385031215613cb057600080fd5b82359150613a3e60208401613991565b60008060008060608587031215613cd657600080fd5b84359350602085013567ffffffffffffffff811115613b3a57600080fd5b60008060408385031215613d0757600080fd5b50508035926020909101359150565b600080600080600060a08688031215613d2e57600080fd5b505083359560208501359550604085013594606081013594506080013592509050565b60008060008060008060c08789031215613d6a57600080fd5b505084359660208601359650604086013595606081013595506080810135945060a0013592509050565b60008151808452613dac816020860160208601613ec8565b601f01601f19169290920160200192915050565b60008351613dd2818460208801613ec8565b835190830190613de6818360208801613ec8565b7f2e6a736f6e0000000000000000000000000000000000000000000000000000009101908152600501949350505050565b60006001600160a01b03808716835280861660208401525083604083015260806060830152613e496080830184613d94565b9695505050505050565b6020815260006124106020830184613d94565b60008219821115613e7957613e79613f5e565b500190565b600082613e8d57613e8d613f74565b500490565b6000816000190483118215151615613eac57613eac613f5e565b500290565b600082821015613ec357613ec3613f5e565b500390565b60005b83811015613ee3578181015183820152602001613ecb565b8381111561231b5750506000910152565b600181811c90821680613f0857607f821691505b60208210811415613f2957634e487b7160e01b600052602260045260246000fd5b50919050565b6000600019821415613f4357613f43613f5e565b5060010190565b600082613f5957613f59613f74565b500690565b634e487b7160e01b600052601160045260246000fd5b634e487b7160e01b600052601260045260246000fd5b634e487b7160e01b600052603160045260246000fd5b634e487b7160e01b600052603260045260246000fd5b634e487b7160e01b600052604160045260246000fd5b6001600160e01b03198116811461164257600080fdfea26469706673582212205f3803c0aeb3095f087706e23046a3a4e4fda0c73174204de68a131d2d36da2e64736f6c63430008070033",
  "linkReferences": {},
  "deployedLinkReferences": {}
}